{
  "contractName": "MoonStaking",
  "abi": [
    {
      "inputs": [
        {
          "internalType": "address",
          "name": "_ape",
          "type": "address"
        }
      ],
      "stateMutability": "nonpayable",
      "type": "constructor"
    },
    {
      "anonymous": false,
      "inputs": [
        {
          "indexed": true,
          "internalType": "address",
          "name": "staker",
          "type": "address"
        },
        {
          "indexed": false,
          "internalType": "uint256",
          "name": "apesAmount",
          "type": "uint256"
        }
      ],
      "name": "AddLootToStakedApes",
      "type": "event"
    },
    {
      "anonymous": false,
      "inputs": [
        {
          "indexed": true,
          "internalType": "address",
          "name": "receiver",
          "type": "address"
        },
        {
          "indexed": true,
          "internalType": "address",
          "name": "tokenAddress",
          "type": "address"
        },
        {
          "indexed": true,
          "internalType": "uint256",
          "name": "tokenId",
          "type": "uint256"
        }
      ],
      "name": "ForceWithdraw721",
      "type": "event"
    },
    {
      "anonymous": false,
      "inputs": [
        {
          "indexed": true,
          "internalType": "address",
          "name": "previousOwner",
          "type": "address"
        },
        {
          "indexed": true,
          "internalType": "address",
          "name": "newOwner",
          "type": "address"
        }
      ],
      "name": "OwnershipTransferred",
      "type": "event"
    },
    {
      "anonymous": false,
      "inputs": [
        {
          "indexed": true,
          "internalType": "address",
          "name": "staker",
          "type": "address"
        },
        {
          "indexed": false,
          "internalType": "uint256",
          "name": "lootsAmount",
          "type": "uint256"
        }
      ],
      "name": "RemoveLootFromStakedApes",
      "type": "event"
    },
    {
      "anonymous": false,
      "inputs": [
        {
          "indexed": true,
          "internalType": "address",
          "name": "staker",
          "type": "address"
        },
        {
          "indexed": false,
          "internalType": "address",
          "name": "contractAddress",
          "type": "address"
        },
        {
          "indexed": false,
          "internalType": "uint256",
          "name": "tokensAmount",
          "type": "uint256"
        }
      ],
      "name": "Stake721",
      "type": "event"
    },
    {
      "anonymous": false,
      "inputs": [
        {
          "indexed": true,
          "internalType": "address",
          "name": "staker",
          "type": "address"
        },
        {
          "indexed": false,
          "internalType": "uint256",
          "name": "apesAmount",
          "type": "uint256"
        }
      ],
      "name": "StakeApesWithLoots",
      "type": "event"
    },
    {
      "anonymous": false,
      "inputs": [
        {
          "indexed": true,
          "internalType": "address",
          "name": "staker",
          "type": "address"
        },
        {
          "indexed": false,
          "internalType": "uint256",
          "name": "numberOfPetIds",
          "type": "uint256"
        }
      ],
      "name": "StakePets",
      "type": "event"
    },
    {
      "anonymous": false,
      "inputs": [
        {
          "indexed": true,
          "internalType": "address",
          "name": "staker",
          "type": "address"
        },
        {
          "indexed": false,
          "internalType": "address",
          "name": "contractAddress",
          "type": "address"
        },
        {
          "indexed": false,
          "internalType": "uint256",
          "name": "tokensAmount",
          "type": "uint256"
        }
      ],
      "name": "Unstake721",
      "type": "event"
    },
    {
      "anonymous": false,
      "inputs": [
        {
          "indexed": true,
          "internalType": "address",
          "name": "staker",
          "type": "address"
        },
        {
          "indexed": false,
          "internalType": "uint256",
          "name": "numberOfPetIds",
          "type": "uint256"
        }
      ],
      "name": "UnstakePets",
      "type": "event"
    },
    {
      "inputs": [],
      "name": "ApeNft",
      "outputs": [
        {
          "internalType": "contract IERC721",
          "name": "",
          "type": "address"
        }
      ],
      "stateMutability": "view",
      "type": "function"
    },
    {
      "inputs": [],
      "name": "BreedingNft",
      "outputs": [
        {
          "internalType": "contract IERC721",
          "name": "",
          "type": "address"
        }
      ],
      "stateMutability": "view",
      "type": "function"
    },
    {
      "inputs": [],
      "name": "LootNft",
      "outputs": [
        {
          "internalType": "contract IERC721",
          "name": "",
          "type": "address"
        }
      ],
      "stateMutability": "view",
      "type": "function"
    },
    {
      "inputs": [],
      "name": "PetNft",
      "outputs": [
        {
          "internalType": "contract IERC1155",
          "name": "",
          "type": "address"
        }
      ],
      "stateMutability": "view",
      "type": "function"
    },
    {
      "inputs": [],
      "name": "SECONDS_IN_DAY",
      "outputs": [
        {
          "internalType": "uint256",
          "name": "",
          "type": "uint256"
        }
      ],
      "stateMutability": "view",
      "type": "function"
    },
    {
      "inputs": [],
      "name": "TreasuryNft",
      "outputs": [
        {
          "internalType": "contract IERC721",
          "name": "",
          "type": "address"
        }
      ],
      "stateMutability": "view",
      "type": "function"
    },
    {
      "inputs": [
        {
          "internalType": "address",
          "name": "",
          "type": "address"
        }
      ],
      "name": "_baseRates",
      "outputs": [
        {
          "internalType": "uint256",
          "name": "",
          "type": "uint256"
        }
      ],
      "stateMutability": "view",
      "type": "function"
    },
    {
      "inputs": [
        {
          "internalType": "uint256",
          "name": "",
          "type": "uint256"
        }
      ],
      "name": "authorisedLog",
      "outputs": [
        {
          "internalType": "address",
          "name": "",
          "type": "address"
        }
      ],
      "stateMutability": "view",
      "type": "function"
    },
    {
      "inputs": [],
      "name": "depositPaused",
      "outputs": [
        {
          "internalType": "bool",
          "name": "",
          "type": "bool"
        }
      ],
      "stateMutability": "view",
      "type": "function"
    },
    {
      "inputs": [
        {
          "internalType": "address",
          "name": "",
          "type": "address"
        },
        {
          "internalType": "address",
          "name": "",
          "type": "address"
        },
        {
          "internalType": "uint256[]",
          "name": "",
          "type": "uint256[]"
        },
        {
          "internalType": "uint256[]",
          "name": "",
          "type": "uint256[]"
        },
        {
          "internalType": "bytes",
          "name": "",
          "type": "bytes"
        }
      ],
      "name": "onERC1155BatchReceived",
      "outputs": [
        {
          "internalType": "bytes4",
          "name": "",
          "type": "bytes4"
        }
      ],
      "stateMutability": "nonpayable",
      "type": "function"
    },
    {
      "inputs": [
        {
          "internalType": "address",
          "name": "",
          "type": "address"
        },
        {
          "internalType": "address",
          "name": "",
          "type": "address"
        },
        {
          "internalType": "uint256",
          "name": "",
          "type": "uint256"
        },
        {
          "internalType": "uint256",
          "name": "",
          "type": "uint256"
        },
        {
          "internalType": "bytes",
          "name": "",
          "type": "bytes"
        }
      ],
      "name": "onERC1155Received",
      "outputs": [
        {
          "internalType": "bytes4",
          "name": "",
          "type": "bytes4"
        }
      ],
      "stateMutability": "nonpayable",
      "type": "function"
    },
    {
      "inputs": [],
      "name": "owner",
      "outputs": [
        {
          "internalType": "address",
          "name": "",
          "type": "address"
        }
      ],
      "stateMutability": "view",
      "type": "function"
    },
    {
      "inputs": [],
      "name": "renounceOwnership",
      "outputs": [],
      "stateMutability": "nonpayable",
      "type": "function"
    },
    {
      "inputs": [],
      "name": "stakingLaunched",
      "outputs": [
        {
          "internalType": "bool",
          "name": "",
          "type": "bool"
        }
      ],
      "stateMutability": "view",
      "type": "function"
    },
    {
      "inputs": [
        {
          "internalType": "bytes4",
          "name": "interfaceId",
          "type": "bytes4"
        }
      ],
      "name": "supportsInterface",
      "outputs": [
        {
          "internalType": "bool",
          "name": "",
          "type": "bool"
        }
      ],
      "stateMutability": "view",
      "type": "function"
    },
    {
      "inputs": [
        {
          "internalType": "address",
          "name": "newOwner",
          "type": "address"
        }
      ],
      "name": "transferOwnership",
      "outputs": [],
      "stateMutability": "nonpayable",
      "type": "function"
    },
    {
      "inputs": [
        {
          "internalType": "address",
          "name": "contractAddress",
          "type": "address"
        },
        {
          "internalType": "uint256[]",
          "name": "tokenIds",
          "type": "uint256[]"
        }
      ],
      "name": "stake721",
      "outputs": [],
      "stateMutability": "nonpayable",
      "type": "function"
    },
    {
      "inputs": [
        {
          "internalType": "uint256[]",
          "name": "tokenIds",
          "type": "uint256[]"
        },
        {
          "internalType": "uint256[]",
          "name": "amounts",
          "type": "uint256[]"
        }
      ],
      "name": "stake1155",
      "outputs": [],
      "stateMutability": "nonpayable",
      "type": "function"
    },
    {
      "inputs": [
        {
          "internalType": "uint256[]",
          "name": "apeIds",
          "type": "uint256[]"
        },
        {
          "internalType": "uint256[]",
          "name": "lootIds",
          "type": "uint256[]"
        }
      ],
      "name": "addLootToStakedApes",
      "outputs": [],
      "stateMutability": "nonpayable",
      "type": "function"
    },
    {
      "inputs": [
        {
          "internalType": "uint256[]",
          "name": "apeIds",
          "type": "uint256[]"
        }
      ],
      "name": "removeLootFromStakedApes",
      "outputs": [],
      "stateMutability": "nonpayable",
      "type": "function"
    },
    {
      "inputs": [
        {
          "internalType": "uint256[]",
          "name": "apeIds",
          "type": "uint256[]"
        },
        {
          "internalType": "uint256[]",
          "name": "lootIds",
          "type": "uint256[]"
        }
      ],
      "name": "stakeApesWithLoots",
      "outputs": [],
      "stateMutability": "nonpayable",
      "type": "function"
    },
    {
      "inputs": [
        {
          "internalType": "address",
          "name": "contractAddress",
          "type": "address"
        },
        {
          "internalType": "uint256[]",
          "name": "tokenIds",
          "type": "uint256[]"
        }
      ],
      "name": "unstake721",
      "outputs": [],
      "stateMutability": "nonpayable",
      "type": "function"
    },
    {
      "inputs": [
        {
          "internalType": "uint256[]",
          "name": "tokenIds",
          "type": "uint256[]"
        }
      ],
      "name": "unstake1155",
      "outputs": [],
      "stateMutability": "nonpayable",
      "type": "function"
    },
    {
      "inputs": [
        {
          "internalType": "address",
          "name": "contractAddress",
          "type": "address"
        },
        {
          "internalType": "uint256",
          "name": "tokenId",
          "type": "uint256"
        }
      ],
      "name": "getTokenYield",
      "outputs": [
        {
          "internalType": "uint256",
          "name": "",
          "type": "uint256"
        }
      ],
      "stateMutability": "view",
      "type": "function"
    },
    {
      "inputs": [
        {
          "internalType": "uint256",
          "name": "apeId",
          "type": "uint256"
        },
        {
          "internalType": "uint256",
          "name": "lootId",
          "type": "uint256"
        }
      ],
      "name": "getApeLootTokenYield",
      "outputs": [
        {
          "internalType": "uint256",
          "name": "",
          "type": "uint256"
        }
      ],
      "stateMutability": "view",
      "type": "function"
    },
    {
      "inputs": [
        {
          "internalType": "uint256",
          "name": "petId",
          "type": "uint256"
        },
        {
          "internalType": "uint256",
          "name": "amount",
          "type": "uint256"
        }
      ],
      "name": "getPetTokenYield",
      "outputs": [
        {
          "internalType": "uint256",
          "name": "",
          "type": "uint256"
        }
      ],
      "stateMutability": "view",
      "type": "function"
    },
    {
      "inputs": [
        {
          "internalType": "address",
          "name": "staker",
          "type": "address"
        }
      ],
      "name": "getStakerYield",
      "outputs": [
        {
          "internalType": "uint256",
          "name": "",
          "type": "uint256"
        }
      ],
      "stateMutability": "view",
      "type": "function"
    },
    {
      "inputs": [
        {
          "internalType": "address",
          "name": "staker",
          "type": "address"
        }
      ],
      "name": "getStakerNFT",
      "outputs": [
        {
          "internalType": "uint256[]",
          "name": "",
          "type": "uint256[]"
        },
        {
          "internalType": "uint256[]",
          "name": "",
          "type": "uint256[]"
        },
        {
          "internalType": "uint256[]",
          "name": "",
          "type": "uint256[]"
        },
        {
          "internalType": "uint256[]",
          "name": "",
          "type": "uint256[]"
        },
        {
          "internalType": "uint256[]",
          "name": "",
          "type": "uint256[]"
        }
      ],
      "stateMutability": "view",
      "type": "function"
    },
    {
      "inputs": [
        {
          "internalType": "address",
          "name": "staker",
          "type": "address"
        }
      ],
      "name": "getCurrentReward",
      "outputs": [
        {
          "internalType": "uint256",
          "name": "",
          "type": "uint256"
        }
      ],
      "stateMutability": "view",
      "type": "function"
    },
    {
      "inputs": [
        {
          "internalType": "address",
          "name": "staker",
          "type": "address"
        }
      ],
      "name": "getAccumulatedAmount",
      "outputs": [
        {
          "internalType": "uint256",
          "name": "",
          "type": "uint256"
        }
      ],
      "stateMutability": "view",
      "type": "function"
    },
    {
      "inputs": [
        {
          "internalType": "address",
          "name": "contractAddress",
          "type": "address"
        },
        {
          "internalType": "uint256",
          "name": "tokenId",
          "type": "uint256"
        }
      ],
      "name": "ownerOf",
      "outputs": [
        {
          "internalType": "address",
          "name": "",
          "type": "address"
        }
      ],
      "stateMutability": "view",
      "type": "function"
    },
    {
      "inputs": [
        {
          "internalType": "address",
          "name": "user",
          "type": "address"
        }
      ],
      "name": "balanceOf",
      "outputs": [
        {
          "internalType": "uint256",
          "name": "",
          "type": "uint256"
        }
      ],
      "stateMutability": "view",
      "type": "function"
    },
    {
      "inputs": [
        {
          "internalType": "address",
          "name": "_treasury",
          "type": "address"
        },
        {
          "internalType": "uint256",
          "name": "_baseReward",
          "type": "uint256"
        }
      ],
      "name": "setTREASURYContract",
      "outputs": [],
      "stateMutability": "nonpayable",
      "type": "function"
    },
    {
      "inputs": [
        {
          "internalType": "address",
          "name": "_pet",
          "type": "address"
        },
        {
          "internalType": "uint256",
          "name": "_baseReward",
          "type": "uint256"
        }
      ],
      "name": "setPETContract",
      "outputs": [],
      "stateMutability": "nonpayable",
      "type": "function"
    },
    {
      "inputs": [
        {
          "internalType": "address",
          "name": "_loot",
          "type": "address"
        },
        {
          "internalType": "uint256",
          "name": "_baseBoost",
          "type": "uint256"
        }
      ],
      "name": "setLOOTContract",
      "outputs": [],
      "stateMutability": "nonpayable",
      "type": "function"
    },
    {
      "inputs": [
        {
          "internalType": "address",
          "name": "_breeding",
          "type": "address"
        },
        {
          "internalType": "uint256",
          "name": "_baseReward",
          "type": "uint256"
        }
      ],
      "name": "setBREEDING",
      "outputs": [],
      "stateMutability": "nonpayable",
      "type": "function"
    },
    {
      "inputs": [
        {
          "internalType": "address",
          "name": "toAuth",
          "type": "address"
        }
      ],
      "name": "authorise",
      "outputs": [],
      "stateMutability": "nonpayable",
      "type": "function"
    },
    {
      "inputs": [
        {
          "internalType": "address",
          "name": "addressToUnAuth",
          "type": "address"
        }
      ],
      "name": "unauthorise",
      "outputs": [],
      "stateMutability": "nonpayable",
      "type": "function"
    },
    {
      "inputs": [
        {
          "internalType": "address",
          "name": "tokenAddress",
          "type": "address"
        },
        {
          "internalType": "uint256[]",
          "name": "tokenIds",
          "type": "uint256[]"
        }
      ],
      "name": "forceWithdraw721",
      "outputs": [],
      "stateMutability": "nonpayable",
      "type": "function"
    },
    {
      "inputs": [
        {
          "internalType": "bool",
          "name": "_pause",
          "type": "bool"
        }
      ],
      "name": "pauseDeposit",
      "outputs": [],
      "stateMutability": "nonpayable",
      "type": "function"
    },
    {
      "inputs": [],
      "name": "launchStaking",
      "outputs": [],
      "stateMutability": "nonpayable",
      "type": "function"
    },
    {
      "inputs": [
        {
          "internalType": "address",
          "name": "_contract",
          "type": "address"
        },
        {
          "internalType": "uint256",
          "name": "_yield",
          "type": "uint256"
        }
      ],
      "name": "updateBaseYield",
      "outputs": [],
      "stateMutability": "nonpayable",
      "type": "function"
    },
    {
      "inputs": [
        {
          "internalType": "address",
          "name": "contractAddress",
          "type": "address"
        },
        {
          "internalType": "uint256[]",
          "name": "tokenIds",
          "type": "uint256[]"
        },
        {
          "internalType": "uint256[]",
          "name": "rates",
          "type": "uint256[]"
        }
      ],
      "name": "setIndividualRates",
      "outputs": [],
      "stateMutability": "nonpayable",
      "type": "function"
    },
    {
      "inputs": [
        {
          "internalType": "address",
          "name": "",
          "type": "address"
        },
        {
          "internalType": "address",
          "name": "",
          "type": "address"
        },
        {
          "internalType": "uint256",
          "name": "",
          "type": "uint256"
        },
        {
          "internalType": "bytes",
          "name": "",
          "type": "bytes"
        }
      ],
      "name": "onERC721Received",
      "outputs": [
        {
          "internalType": "bytes4",
          "name": "",
          "type": "bytes4"
        }
      ],
      "stateMutability": "pure",
      "type": "function"
    },
    {
      "inputs": [],
      "name": "withdrawETH",
      "outputs": [],
      "stateMutability": "nonpayable",
      "type": "function"
    }
  ],
  "bytecode": "0x60806040523480156200001157600080fd5b50604051620080d3380380620080d3833981810160405281019062000037919062000294565b620000576200004b6200015e60201b60201c565b6200016660201b60201c565b6001808190555080600260006101000a81548173ffffffffffffffffffffffffffffffffffffffff021916908373ffffffffffffffffffffffffffffffffffffffff1602179055506000600a60008373ffffffffffffffffffffffffffffffffffffffff1673ffffffffffffffffffffffffffffffffffffffff16815260200190815260200160002060006101000a81548160ff02191690836004811115620001055762000104620002c6565b5b0217905550680821ab0d4414980000600b60008373ffffffffffffffffffffffffffffffffffffffff1673ffffffffffffffffffffffffffffffffffffffff1681526020019081526020016000208190555050620002f5565b600033905090565b60008060009054906101000a900473ffffffffffffffffffffffffffffffffffffffff169050816000806101000a81548173ffffffffffffffffffffffffffffffffffffffff021916908373ffffffffffffffffffffffffffffffffffffffff1602179055508173ffffffffffffffffffffffffffffffffffffffff168173ffffffffffffffffffffffffffffffffffffffff167f8be0079c531659141344cd1fd0a4f28419497f9722a3daafe3b4186f6b6457e060405160405180910390a35050565b600080fd5b600073ffffffffffffffffffffffffffffffffffffffff82169050919050565b60006200025c826200022f565b9050919050565b6200026e816200024f565b81146200027a57600080fd5b50565b6000815190506200028e8162000263565b92915050565b600060208284031215620002ad57620002ac6200022a565b5b6000620002bd848285016200027d565b91505092915050565b7f4e487b7100000000000000000000000000000000000000000000000000000000600052602160045260246000fd5b617dce80620003056000396000f3fe608060405234801561001057600080fd5b506004361061027f5760003560e01c806370a082311161015c578063bc197c81116100ce578063e086e5ec11610087578063e086e5ec146107b8578063e1af5698146107c2578063e585e104146107e0578063eb4426b6146107fc578063f23a6e6114610830578063f2fde38b146108605761027f565b8063bc197c81146106d2578063c68e516114610702578063c6926b5e1461071e578063c82bc61d1461074e578063cd79b4541461077e578063da3556121461079a5761027f565b80638208f0b0116101205780638208f0b0146106385780638da5cb5b146106545780639017247b14610672578063a30a24741461068e578063b65cea3714610698578063bb485ed3146106b65761027f565b806370a08231146105a8578063715018a6146105d85780637217684f146105e25780637f4a67bf1461060057806380833d781461061c5761027f565b806330006f23116101f557806361499ab9116101b957806361499ab9146104e857806361a52a3614610518578063638ec9a61461053657806366e6c8af146105545780636d9b7ab014610570578063708c94c71461058c5761027f565b806330006f23146104345780633172267814610450578063415855d61461046c5780634bee21d4146104885780634d307e3f146104b85761027f565b8063150b7a0211610247578063150b7a021461033a5780631b98ccd21461036a5780631cdd44f6146103865780631f29d2dc146103b657806322b7faea146103e657806323101e27146104045761027f565b806301ffc9a71461028457806302befd24146102b457806304129667146102d257806306685a971461030257806309cd99d71461031e575b600080fd5b61029e600480360381019061029991906163cb565b61087c565b6040516102ab9190616413565b60405180910390f35b6102bc6108f6565b6040516102c99190616413565b60405180910390f35b6102ec60048036038101906102e7919061648c565b610909565b6040516102f991906164d2565b60405180910390f35b61031c60048036038101906103179190616519565b610968565b005b610338600480360381019061033391906166b2565b610ad5565b005b610354600480360381019061034f9190616798565b610e14565b604051610361919061682f565b60405180910390f35b610384600480360381019061037f9190616519565b610e42565b005b6103a0600480360381019061039b919061684a565b610faf565b6040516103ad91906164d2565b60405180910390f35b6103d060048036038101906103cb9190616519565b6111ac565b6040516103dd9190616899565b60405180910390f35b6103ee611227565b6040516103fb9190616913565b60405180910390f35b61041e6004803603810190610419919061648c565b61124d565b60405161042b91906164d2565b60405180910390f35b61044e60048036038101906104499190616519565b611265565b005b61046a6004803603810190610465919061692e565b6113d2565b005b610486600480360381019061048191906169d2565b611c8d565b005b6104a2600480360381019061049d919061648c565b611d26565b6040516104af91906164d2565b60405180910390f35b6104d260048036038101906104cd919061648c565b611d72565b6040516104df91906164d2565b60405180910390f35b61050260048036038101906104fd9190616519565b611f8b565b60405161050f91906164d2565b60405180910390f35b610520612036565b60405161052d91906164d2565b60405180910390f35b61053e61203d565b60405161054b9190616913565b60405180910390f35b61056e6004803603810190610569919061648c565b612063565b005b61058a600480360381019061058591906169ff565b61219d565b005b6105a660048036038101906105a19190616a48565b6126ce565b005b6105c260048036038101906105bd919061648c565b6131fd565b6040516105cf91906164d2565b60405180910390f35b6105e061324c565b005b6105ea6132d4565b6040516105f79190616ac5565b60405180910390f35b61061a60048036038101906106159190616a48565b6132fa565b005b6106366004803603810190610631919061648c565b613a70565b005b610652600480360381019061064d91906169ff565b613b47565b005b61065c6141a9565b6040516106699190616899565b60405180910390f35b61068c6004803603810190610687919061692e565b6141d2565b005b610696614b22565b005b6106a0614c0b565b6040516106ad9190616913565b60405180910390f35b6106d060048036038101906106cb919061692e565b614c31565b005b6106ec60048036038101906106e79190616b95565b61525a565b6040516106f9919061682f565b60405180910390f35b61071c60048036038101906107179190616519565b61526f565b005b6107386004803603810190610733919061684a565b615333565b60405161074591906164d2565b60405180910390f35b61076860048036038101906107639190616c64565b61542d565b6040516107759190616899565b60405180910390f35b61079860048036038101906107939190616a48565b61546c565b005b6107a26157ea565b6040516107af9190616913565b60405180910390f35b6107c0615810565b005b6107ca6158dc565b6040516107d79190616413565b60405180910390f35b6107fa60048036038101906107f59190616519565b6158ef565b005b6108166004803603810190610811919061648c565b615a5c565b604051610827959493929190616d4f565b60405180910390f35b61084a60048036038101906108459190616dc5565b615ed9565b604051610857919061682f565b60405180910390f35b61087a6004803603810190610875919061648c565b615eee565b005b60007f4e2312e0000000000000000000000000000000000000000000000000000000007bffffffffffffffffffffffffffffffffffffffffffffffffffffffff1916827bffffffffffffffffffffffffffffffffffffffffffffffffffffffff191614806108ef57506108ee82615fe5565b5b9050919050565b600660159054906101000a900460ff1681565b600061091482611d72565b600960008473ffffffffffffffffffffffffffffffffffffffff1673ffffffffffffffffffffffffffffffffffffffff168152602001908152602001600020600101546109619190616e8b565b9050919050565b61097061604f565b73ffffffffffffffffffffffffffffffffffffffff1661098e6141a9565b73ffffffffffffffffffffffffffffffffffffffff16146109e4576040517f08c379a00000000000000000000000000000000000000000000000000000000081526004016109db90616f1c565b60405180910390fd5b81600360006101000a81548173ffffffffffffffffffffffffffffffffffffffff021916908373ffffffffffffffffffffffffffffffffffffffff1602179055506001600a60008473ffffffffffffffffffffffffffffffffffffffff1673ffffffffffffffffffffffffffffffffffffffff16815260200190815260200160002060006101000a81548160ff02191690836004811115610a8857610a87616f3c565b5b021790555080600b60008473ffffffffffffffffffffffffffffffffffffffff1673ffffffffffffffffffffffffffffffffffffffff168152602001908152602001600020819055505050565b610add61604f565b73ffffffffffffffffffffffffffffffffffffffff16610afb6141a9565b73ffffffffffffffffffffffffffffffffffffffff1614610b51576040517f08c379a0000000000000000000000000000000000000000000000000000000008152600401610b4890616f1c565b60405180910390fd5b600073ffffffffffffffffffffffffffffffffffffffff168373ffffffffffffffffffffffffffffffffffffffff1614158015610bdb5750600260009054906101000a900473ffffffffffffffffffffffffffffffffffffffff1673ffffffffffffffffffffffffffffffffffffffff168373ffffffffffffffffffffffffffffffffffffffff16145b80610c335750600360009054906101000a900473ffffffffffffffffffffffffffffffffffffffff1673ffffffffffffffffffffffffffffffffffffffff168373ffffffffffffffffffffffffffffffffffffffff16145b80610c8b5750600560009054906101000a900473ffffffffffffffffffffffffffffffffffffffff1673ffffffffffffffffffffffffffffffffffffffff168373ffffffffffffffffffffffffffffffffffffffff16145b80610ce35750600460009054906101000a900473ffffffffffffffffffffffffffffffffffffffff1673ffffffffffffffffffffffffffffffffffffffff168373ffffffffffffffffffffffffffffffffffffffff16145b610d22576040517f08c379a0000000000000000000000000000000000000000000000000000000008152600401610d1990616fb7565b60405180910390fd5b8051825114610d66576040517f08c379a0000000000000000000000000000000000000000000000000000000008152600401610d5d90617023565b60405180910390fd5b60005b8251811015610e0e57818181518110610d8557610d84617043565b5b6020026020010151600c60008673ffffffffffffffffffffffffffffffffffffffff1673ffffffffffffffffffffffffffffffffffffffff1681526020019081526020016000206000858481518110610de157610de0617043565b5b60200260200101518152602001908152602001600020819055508080610e0690617072565b915050610d69565b50505050565b60007f150b7a023d4804d13e8c85fb27262cb750cf6ba9f9dd3bb30d90f482ceeb4b1f905095945050505050565b610e4a61604f565b73ffffffffffffffffffffffffffffffffffffffff16610e686141a9565b73ffffffffffffffffffffffffffffffffffffffff1614610ebe576040517f08c379a0000000000000000000000000000000000000000000000000000000008152600401610eb590616f1c565b60405180910390fd5b81600460006101000a81548173ffffffffffffffffffffffffffffffffffffffff021916908373ffffffffffffffffffffffffffffffffffffffff1602179055506002600a60008473ffffffffffffffffffffffffffffffffffffffff1673ffffffffffffffffffffffffffffffffffffffff16815260200190815260200160002060006101000a81548160ff02191690836004811115610f6257610f61616f3c565b5b021790555080600b60008473ffffffffffffffffffffffffffffffffffffffff1673ffffffffffffffffffffffffffffffffffffffff168152602001908152602001600020819055505050565b600080600c6000600260009054906101000a900473ffffffffffffffffffffffffffffffffffffffff1673ffffffffffffffffffffffffffffffffffffffff1673ffffffffffffffffffffffffffffffffffffffff16815260200190815260200160002060008581526020019081526020016000205490506000810361109457600b6000600260009054906101000a900473ffffffffffffffffffffffffffffffffffffffff1673ffffffffffffffffffffffffffffffffffffffff1673ffffffffffffffffffffffffffffffffffffffff1681526020019081526020016000205490505b6000600c6000600360009054906101000a900473ffffffffffffffffffffffffffffffffffffffff1673ffffffffffffffffffffffffffffffffffffffff1673ffffffffffffffffffffffffffffffffffffffff16815260200190815260200160002060008581526020019081526020016000205490506000840361111c57600a905061118a565b6000810361118957600b6000600360009054906101000a900473ffffffffffffffffffffffffffffffffffffffff1673ffffffffffffffffffffffffffffffffffffffff1673ffffffffffffffffffffffffffffffffffffffff1681526020019081526020016000205490505b5b600a818361119891906170ba565b6111a2919061712b565b9250505092915050565b6000600d60008473ffffffffffffffffffffffffffffffffffffffff1673ffffffffffffffffffffffffffffffffffffffff168152602001908152602001600020600083815260200190815260200160002060009054906101000a900473ffffffffffffffffffffffffffffffffffffffff16905092915050565b600260009054906101000a900473ffffffffffffffffffffffffffffffffffffffff1681565b600b6020528060005260406000206000915090505481565b61126d61604f565b73ffffffffffffffffffffffffffffffffffffffff1661128b6141a9565b73ffffffffffffffffffffffffffffffffffffffff16146112e1576040517f08c379a00000000000000000000000000000000000000000000000000000000081526004016112d890616f1c565b60405180910390fd5b81600660006101000a81548173ffffffffffffffffffffffffffffffffffffffff021916908373ffffffffffffffffffffffffffffffffffffffff1602179055506004600a60008473ffffffffffffffffffffffffffffffffffffffff1673ffffffffffffffffffffffffffffffffffffffff16815260200190815260200160002060006101000a81548160ff0219169083600481111561138557611384616f3c565b5b021790555080600b60008473ffffffffffffffffffffffffffffffffffffffff1673ffffffffffffffffffffffffffffffffffffffff168152602001908152602001600020819055505050565b600260015403611417576040517f08c379a000000000000000000000000000000000000000000000000000000000815260040161140e906171a8565b60405180910390fd5b6002600181905550600660159054906101000a900460ff161561146f576040517f08c379a000000000000000000000000000000000000000000000000000000000815260040161146690617214565b60405180910390fd5b600660149054906101000a900460ff166114be576040517f08c379a00000000000000000000000000000000000000000000000000000000081526004016114b590617280565b60405180910390fd5b8051825114611502576040517f08c379a00000000000000000000000000000000000000000000000000000000081526004016114f990617023565b60405180910390fd5b600073ffffffffffffffffffffffffffffffffffffffff16600360009054906101000a900473ffffffffffffffffffffffffffffffffffffffff1673ffffffffffffffffffffffffffffffffffffffff1603611593576040517f08c379a000000000000000000000000000000000000000000000000000000000815260040161158a90617312565b60405180910390fd5b6000600960006115a161604f565b73ffffffffffffffffffffffffffffffffffffffff1673ffffffffffffffffffffffffffffffffffffffff168152602001908152602001600020905060008160000154905060005b8451811015611c10576115fa61604f565b73ffffffffffffffffffffffffffffffffffffffff16600d6000600260009054906101000a900473ffffffffffffffffffffffffffffffffffffffff1673ffffffffffffffffffffffffffffffffffffffff1673ffffffffffffffffffffffffffffffffffffffff168152602001908152602001600020600087848151811061168657611685617043565b5b6020026020010151815260200190815260200160002060009054906101000a900473ffffffffffffffffffffffffffffffffffffffff1673ffffffffffffffffffffffffffffffffffffffff1614611713576040517f08c379a000000000000000000000000000000000000000000000000000000000815260040161170a9061737e565b60405180910390fd5b60006008600061172161604f565b73ffffffffffffffffffffffffffffffffffffffff1673ffffffffffffffffffffffffffffffffffffffff16815260200190815260200160002060008784815181106117705761176f617043565b5b6020026020010151815260200190815260200160002054146117c7576040517f08c379a00000000000000000000000000000000000000000000000000000000081526004016117be90617410565b60405180910390fd5b60008482815181106117dc576117db617043565b5b602002602001015111611824576040517f08c379a000000000000000000000000000000000000000000000000000000000815260040161181b9061747c565b60405180910390fd5b61182c61604f565b73ffffffffffffffffffffffffffffffffffffffff16600360009054906101000a900473ffffffffffffffffffffffffffffffffffffffff1673ffffffffffffffffffffffffffffffffffffffff16636352211e86848151811061189357611892617043565b5b60200260200101516040518263ffffffff1660e01b81526004016118b791906164d2565b602060405180830381865afa1580156118d4573d6000803e3d6000fd5b505050506040513d601f19601f820116820180604052508101906118f891906174b1565b73ffffffffffffffffffffffffffffffffffffffff161461194e576040517f08c379a00000000000000000000000000000000000000000000000000000000081526004016119459061752a565b60405180910390fd5b600360009054906101000a900473ffffffffffffffffffffffffffffffffffffffff1673ffffffffffffffffffffffffffffffffffffffff166342842e0e61199461604f565b308785815181106119a8576119a7617043565b5b60200260200101516040518463ffffffff1660e01b81526004016119ce9392919061754a565b600060405180830381600087803b1580156119e857600080fd5b505af11580156119fc573d6000803e3d6000fd5b50505050611a0861604f565b600d6000600360009054906101000a900473ffffffffffffffffffffffffffffffffffffffff1673ffffffffffffffffffffffffffffffffffffffff1673ffffffffffffffffffffffffffffffffffffffff1681526020019081526020016000206000868481518110611a7e57611a7d617043565b5b6020026020010151815260200190815260200160002060006101000a81548173ffffffffffffffffffffffffffffffffffffffff021916908373ffffffffffffffffffffffffffffffffffffffff160217905550611b18600260009054906101000a900473ffffffffffffffffffffffffffffffffffffffff16868381518110611b0b57611b0a617043565b5b6020026020010151611f8b565b611b56868381518110611b2e57611b2d617043565b5b6020026020010151868481518110611b4957611b48617043565b5b6020026020010151610faf565b611b609190617581565b82611b6b9190616e8b565b9150838181518110611b8057611b7f617043565b5b602002602001015160086000611b9461604f565b73ffffffffffffffffffffffffffffffffffffffff1673ffffffffffffffffffffffffffffffffffffffff1681526020019081526020016000206000878481518110611be357611be2617043565b5b60200260200101518152602001908152602001600020819055508080611c0890617072565b9150506115e9565b50611c21611c1c61604f565b616057565b808260000181905550611c3261604f565b73ffffffffffffffffffffffffffffffffffffffff167ff8fc41c4e526dd27b4d584b012149c06c89b47ec0ebfc1b02ea7a260895237ba8551604051611c7891906164d2565b60405180910390a25050600180819055505050565b611c9561604f565b73ffffffffffffffffffffffffffffffffffffffff16611cb36141a9565b73ffffffffffffffffffffffffffffffffffffffff1614611d09576040517f08c379a0000000000000000000000000000000000000000000000000000000008152600401611d0090616f1c565b60405180910390fd5b80600660156101000a81548160ff02191690831515021790555050565b6000600960008373ffffffffffffffffffffffffffffffffffffffff1673ffffffffffffffffffffffffffffffffffffffff168152602001908152602001600020600001549050919050565b600080600960008473ffffffffffffffffffffffffffffffffffffffff1673ffffffffffffffffffffffffffffffffffffffff1681526020019081526020016000206040518060e001604052908160008201548152602001600182015481526020016002820154815260200160038201805480602002602001604051908101604052809291908181526020018280548015611e2c57602002820191906000526020600020905b815481526020019060010190808311611e18575b5050505050815260200160048201805480602002602001604051908101604052809291908181526020018280548015611e8457602002820191906000526020600020905b815481526020019060010190808311611e70575b5050505050815260200160058201805480602002602001604051908101604052809291908181526020018280548015611edc57602002820191906000526020600020905b815481526020019060010190808311611ec8575b5050505050815260200160068201805480602002602001604051908101604052809291908181526020018280548015611f3457602002820191906000526020600020905b815481526020019060010190808311611f20575b50505050508152505090506000816040015103611f55576000915050611f86565b620151808160000151826040015142611f6e9190617581565b611f7891906170ba565b611f82919061712b565b9150505b919050565b600080600c60008573ffffffffffffffffffffffffffffffffffffffff1673ffffffffffffffffffffffffffffffffffffffff16815260200190815260200160002060008481526020019081526020016000205490506000810361202c57600b60008573ffffffffffffffffffffffffffffffffffffffff1673ffffffffffffffffffffffffffffffffffffffff1681526020019081526020016000205490505b8091505092915050565b6201518081565b600660009054906101000a900473ffffffffffffffffffffffffffffffffffffffff1681565b61206b61604f565b73ffffffffffffffffffffffffffffffffffffffff166120896141a9565b73ffffffffffffffffffffffffffffffffffffffff16146120df576040517f08c379a00000000000000000000000000000000000000000000000000000000081526004016120d690616f1c565b60405180910390fd5b6001600e60008373ffffffffffffffffffffffffffffffffffffffff1673ffffffffffffffffffffffffffffffffffffffff16815260200190815260200160002060006101000a81548160ff021916908315150217905550600f819080600181540180825580915050600190039060005260206000200160009091909190916101000a81548173ffffffffffffffffffffffffffffffffffffffff021916908373ffffffffffffffffffffffffffffffffffffffff16021790555050565b6002600154036121e2576040517f08c379a00000000000000000000000000000000000000000000000000000000081526004016121d9906171a8565b60405180910390fd5b60026001819055506000600960006121f861604f565b73ffffffffffffffffffffffffffffffffffffffff1673ffffffffffffffffffffffffffffffffffffffff16815260200190815260200160002090506000816000015490506000835167ffffffffffffffff81111561225a5761225961656f565b5b6040519080825280602002602001820160405280156122885781602001602082028036833780820191505090505b50905060005b8451811015612569576000600760006122a561604f565b73ffffffffffffffffffffffffffffffffffffffff1673ffffffffffffffffffffffffffffffffffffffff16815260200190815260200160002060008784815181106122f4576122f3617043565b5b60200260200101518152602001908152602001600020541161234b576040517f08c379a000000000000000000000000000000000000000000000000000000000815260040161234290617601565b60405180910390fd5b6007600061235761604f565b73ffffffffffffffffffffffffffffffffffffffff1673ffffffffffffffffffffffffffffffffffffffff16815260200190815260200160002060008683815181106123a6576123a5617043565b5b60200260200101518152602001908152602001600020548282815181106123d0576123cf617043565b5b60200260200101818152505061241a8582815181106123f2576123f1617043565b5b602002602001015183838151811061240d5761240c617043565b5b6020026020010151615333565b836124259190617581565b925061249d8460060180548060200260200160405190810160405280929190818152602001828054801561247857602002820191906000526020600020905b815481526020019060010190808311612464575b50505050508683815181106124905761248f617043565b5b6020026020010151616102565b8460060190805190602001906124b49291906162f5565b50836006018054806124c9576124c8617621565b5b600190038181906000526020600020016000905590556000600760006124ed61604f565b73ffffffffffffffffffffffffffffffffffffffff1673ffffffffffffffffffffffffffffffffffffffff168152602001908152602001600020600087848151811061253c5761253b617043565b5b6020026020010151815260200190815260200160002081905550808061256190617072565b91505061228e565b5060008360030180549050148015612588575060008360040180549050145b801561259b575060008360060180549050145b80156125ae575060008360050180549050145b156125b857600091505b600460009054906101000a900473ffffffffffffffffffffffffffffffffffffffff1673ffffffffffffffffffffffffffffffffffffffff16632eb2c2d6306125ff61604f565b87856040518563ffffffff1660e01b81526004016126209493929190617687565b600060405180830381600087803b15801561263a57600080fd5b505af115801561264e573d6000803e3d6000fd5b5050505061266261265d61604f565b616057565b81836000018190555061267361604f565b73ffffffffffffffffffffffffffffffffffffffff167fb32943ee1bfb2aa79a72c99059eb54d00158f7615adf877ccb58c0f91576d93485516040516126b991906164d2565b60405180910390a25050506001808190555050565b600260015403612713576040517f08c379a000000000000000000000000000000000000000000000000000000000815260040161270a906171a8565b60405180910390fd5b6002600181905550600073ffffffffffffffffffffffffffffffffffffffff168273ffffffffffffffffffffffffffffffffffffffff16141580156127a55750600260009054906101000a900473ffffffffffffffffffffffffffffffffffffffff1673ffffffffffffffffffffffffffffffffffffffff168273ffffffffffffffffffffffffffffffffffffffff16145b806127fd5750600560009054906101000a900473ffffffffffffffffffffffffffffffffffffffff1673ffffffffffffffffffffffffffffffffffffffff168273ffffffffffffffffffffffffffffffffffffffff16145b806128555750600660009054906101000a900473ffffffffffffffffffffffffffffffffffffffff1673ffffffffffffffffffffffffffffffffffffffff168273ffffffffffffffffffffffffffffffffffffffff16145b612894576040517f08c379a000000000000000000000000000000000000000000000000000000000815260040161288b9061775f565b60405180910390fd5b6000600a60008473ffffffffffffffffffffffffffffffffffffffff1673ffffffffffffffffffffffffffffffffffffffff16815260200190815260200160002060009054906101000a900460ff1690506000600960006128f361604f565b73ffffffffffffffffffffffffffffffffffffffff1673ffffffffffffffffffffffffffffffffffffffff168152602001908152602001600020905060008160000154905060005b845181101561312f573073ffffffffffffffffffffffffffffffffffffffff168673ffffffffffffffffffffffffffffffffffffffff16636352211e87848151811061298a57612989617043565b5b60200260200101516040518263ffffffff1660e01b81526004016129ae91906164d2565b602060405180830381865afa1580156129cb573d6000803e3d6000fd5b505050506040513d601f19601f820116820180604052508101906129ef91906174b1565b73ffffffffffffffffffffffffffffffffffffffff1614612a45576040517f08c379a0000000000000000000000000000000000000000000000000000000008152600401612a3c906177cb565b60405180910390fd5b6000600d60008873ffffffffffffffffffffffffffffffffffffffff1673ffffffffffffffffffffffffffffffffffffffff1681526020019081526020016000206000878481518110612a9b57612a9a617043565b5b6020026020010151815260200190815260200160002060006101000a81548173ffffffffffffffffffffffffffffffffffffffff021916908373ffffffffffffffffffffffffffffffffffffffff1602179055506000836000015414612d675760006004811115612b0f57612b0e616f3c565b5b846004811115612b2257612b21616f3c565b5b03612d2e57600060086000612b3561604f565b73ffffffffffffffffffffffffffffffffffffffff1673ffffffffffffffffffffffffffffffffffffffff1681526020019081526020016000206000878481518110612b8457612b83617043565b5b602002602001015181526020019081526020016000205490506000612bc3878481518110612bb557612bb4617043565b5b602002602001015183610faf565b90508084612bd19190617581565b93506000821115612d2757600360009054906101000a900473ffffffffffffffffffffffffffffffffffffffff1673ffffffffffffffffffffffffffffffffffffffff166342842e0e30612c2361604f565b856040518463ffffffff1660e01b8152600401612c429392919061754a565b600060405180830381600087803b158015612c5c57600080fd5b505af1158015612c70573d6000803e3d6000fd5b505050506000600d6000600360009054906101000a900473ffffffffffffffffffffffffffffffffffffffff1673ffffffffffffffffffffffffffffffffffffffff1673ffffffffffffffffffffffffffffffffffffffff168152602001908152602001600020600084815260200190815260200160002060006101000a81548173ffffffffffffffffffffffffffffffffffffffff021916908373ffffffffffffffffffffffffffffffffffffffff1602179055505b5050612d66565b6000612d5487878481518110612d4757612d46617043565b5b6020026020010151611f8b565b90508083612d629190617581565b9250505b5b60006004811115612d7b57612d7a616f3c565b5b846004811115612d8e57612d8d616f3c565b5b03612ec357612e0983600301805480602002602001604051908101604052809291908181526020018280548015612de457602002820191906000526020600020905b815481526020019060010190808311612dd0575b5050505050868381518110612dfc57612dfb617043565b5b6020026020010151616102565b836003019080519060200190612e209291906162f5565b5082600301805480612e3557612e34617621565b5b60019003818190600052602060002001600090559055600060086000612e5961604f565b73ffffffffffffffffffffffffffffffffffffffff1673ffffffffffffffffffffffffffffffffffffffff1681526020019081526020016000206000878481518110612ea857612ea7617043565b5b60200260200101518152602001908152602001600020819055505b60036004811115612ed757612ed6616f3c565b5b846004811115612eea57612ee9616f3c565b5b03612fa857612f6583600401805480602002602001604051908101604052809291908181526020018280548015612f4057602002820191906000526020600020905b815481526020019060010190808311612f2c575b5050505050868381518110612f5857612f57617043565b5b6020026020010151616102565b836004019080519060200190612f7c9291906162f5565b5082600401805480612f9157612f90617621565b5b600190038181906000526020600020016000905590555b600480811115612fbb57612fba616f3c565b5b846004811115612fce57612fcd616f3c565b5b0361308c576130498360050180548060200260200160405190810160405280929190818152602001828054801561302457602002820191906000526020600020905b815481526020019060010190808311613010575b505050505086838151811061303c5761303b617043565b5b6020026020010151616102565b8360050190805190602001906130609291906162f5565b508260050180548061307557613074617621565b5b600190038181906000526020600020016000905590555b8573ffffffffffffffffffffffffffffffffffffffff166342842e0e306130b161604f565b8885815181106130c4576130c3617043565b5b60200260200101516040518463ffffffff1660e01b81526004016130ea9392919061754a565b600060405180830381600087803b15801561310457600080fd5b505af1158015613118573d6000803e3d6000fd5b50505050808061312790617072565b91505061293b565b506000826003018054905014801561314e575060008260040180549050145b8015613161575060008260060180549050145b8015613174575060008260050180549050145b1561317e57600090505b61318e61318961604f565b616057565b80826000018190555061319f61604f565b73ffffffffffffffffffffffffffffffffffffffff167f4ba5edd9b1f5ba1a48c7179f325e7dcbd7f63c4eb006f8ebf5e46cbe6fbfc3608686516040516131e79291906177eb565b60405180910390a2505050600180819055505050565b6000600960008373ffffffffffffffffffffffffffffffffffffffff1673ffffffffffffffffffffffffffffffffffffffff168152602001908152602001600020600301805490509050919050565b61325461604f565b73ffffffffffffffffffffffffffffffffffffffff166132726141a9565b73ffffffffffffffffffffffffffffffffffffffff16146132c8576040517f08c379a00000000000000000000000000000000000000000000000000000000081526004016132bf90616f1c565b60405180910390fd5b6132d26000616231565b565b600460009054906101000a900473ffffffffffffffffffffffffffffffffffffffff1681565b60026001540361333f576040517f08c379a0000000000000000000000000000000000000000000000000000000008152600401613336906171a8565b60405180910390fd5b6002600181905550600660159054906101000a900460ff1615613397576040517f08c379a000000000000000000000000000000000000000000000000000000000815260040161338e90617214565b60405180910390fd5b600660149054906101000a900460ff166133e6576040517f08c379a00000000000000000000000000000000000000000000000000000000081526004016133dd90617280565b60405180910390fd5b600073ffffffffffffffffffffffffffffffffffffffff168273ffffffffffffffffffffffffffffffffffffffff16141580156134705750600260009054906101000a900473ffffffffffffffffffffffffffffffffffffffff1673ffffffffffffffffffffffffffffffffffffffff168273ffffffffffffffffffffffffffffffffffffffff16145b806134c85750600560009054906101000a900473ffffffffffffffffffffffffffffffffffffffff1673ffffffffffffffffffffffffffffffffffffffff168273ffffffffffffffffffffffffffffffffffffffff16145b806135205750600660009054906101000a900473ffffffffffffffffffffffffffffffffffffffff1673ffffffffffffffffffffffffffffffffffffffff168273ffffffffffffffffffffffffffffffffffffffff16145b61355f576040517f08c379a00000000000000000000000000000000000000000000000000000000081526004016135569061775f565b60405180910390fd5b6000600a60008473ffffffffffffffffffffffffffffffffffffffff1673ffffffffffffffffffffffffffffffffffffffff16815260200190815260200160002060009054906101000a900460ff1690506000600960006135be61604f565b73ffffffffffffffffffffffffffffffffffffffff1673ffffffffffffffffffffffffffffffffffffffff168152602001908152602001600020905060008160000154905060005b84518110156139f05761361761604f565b73ffffffffffffffffffffffffffffffffffffffff168673ffffffffffffffffffffffffffffffffffffffff16636352211e87848151811061365c5761365b617043565b5b60200260200101516040518263ffffffff1660e01b815260040161368091906164d2565b602060405180830381865afa15801561369d573d6000803e3d6000fd5b505050506040513d601f19601f820116820180604052508101906136c191906174b1565b73ffffffffffffffffffffffffffffffffffffffff1614613717576040517f08c379a000000000000000000000000000000000000000000000000000000000815260040161370e90617860565b60405180910390fd5b8573ffffffffffffffffffffffffffffffffffffffff166342842e0e61373b61604f565b3088858151811061374f5761374e617043565b5b60200260200101516040518463ffffffff1660e01b81526004016137759392919061754a565b600060405180830381600087803b15801561378f57600080fd5b505af11580156137a3573d6000803e3d6000fd5b505050506137af61604f565b600d60008873ffffffffffffffffffffffffffffffffffffffff1673ffffffffffffffffffffffffffffffffffffffff168152602001908152602001600020600087848151811061380357613802617043565b5b6020026020010151815260200190815260200160002060006101000a81548173ffffffffffffffffffffffffffffffffffffffff021916908373ffffffffffffffffffffffffffffffffffffffff16021790555061387b8686838151811061386e5761386d617043565b5b6020026020010151611f8b565b826138869190616e8b565b91506000600481111561389c5761389b616f3c565b5b8460048111156138af576138ae616f3c565b5b036138fa57826003018582815181106138cb576138ca617043565b5b602002602001015190806001815401808255809150506001900390600052602060002001600090919091909150555b60048081111561390d5761390c616f3c565b5b8460048111156139205761391f616f3c565b5b0361396b578260050185828151811061393c5761393b617043565b5b602002602001015190806001815401808255809150506001900390600052602060002001600090919091909150555b6003600481111561397f5761397e616f3c565b5b84600481111561399257613991616f3c565b5b036139dd57826004018582815181106139ae576139ad617043565b5b602002602001015190806001815401808255809150506001900390600052602060002001600090919091909150555b80806139e890617072565b915050613606565b50613a016139fc61604f565b616057565b808260000181905550613a1261604f565b73ffffffffffffffffffffffffffffffffffffffff167fe7de321cbdf2d1b2d2e5e22013ef745d72ebdc806ec3b664584b1cc8dc9abe81868651604051613a5a9291906177eb565b60405180910390a2505050600180819055505050565b613a7861604f565b73ffffffffffffffffffffffffffffffffffffffff16613a966141a9565b73ffffffffffffffffffffffffffffffffffffffff1614613aec576040517f08c379a0000000000000000000000000000000000000000000000000000000008152600401613ae390616f1c565b60405180910390fd5b6000600e60008373ffffffffffffffffffffffffffffffffffffffff1673ffffffffffffffffffffffffffffffffffffffff16815260200190815260200160002060006101000a81548160ff02191690831515021790555050565b600260015403613b8c576040517f08c379a0000000000000000000000000000000000000000000000000000000008152600401613b83906171a8565b60405180910390fd5b6002600181905550600060096000613ba261604f565b73ffffffffffffffffffffffffffffffffffffffff1673ffffffffffffffffffffffffffffffffffffffff168152602001908152602001600020905060008160000154905060005b835181101561412d57613bfb61604f565b73ffffffffffffffffffffffffffffffffffffffff16600d6000600260009054906101000a900473ffffffffffffffffffffffffffffffffffffffff1673ffffffffffffffffffffffffffffffffffffffff1673ffffffffffffffffffffffffffffffffffffffff1681526020019081526020016000206000868481518110613c8757613c86617043565b5b6020026020010151815260200190815260200160002060009054906101000a900473ffffffffffffffffffffffffffffffffffffffff1673ffffffffffffffffffffffffffffffffffffffff1614613d14576040517f08c379a0000000000000000000000000000000000000000000000000000000008152600401613d0b9061737e565b60405180910390fd5b600060086000613d2261604f565b73ffffffffffffffffffffffffffffffffffffffff1673ffffffffffffffffffffffffffffffffffffffff1681526020019081526020016000206000868481518110613d7157613d70617043565b5b6020026020010151815260200190815260200160002054905060008111613dcd576040517f08c379a0000000000000000000000000000000000000000000000000000000008152600401613dc4906178f2565b60405180910390fd5b613dd561604f565b73ffffffffffffffffffffffffffffffffffffffff16600d6000600360009054906101000a900473ffffffffffffffffffffffffffffffffffffffff1673ffffffffffffffffffffffffffffffffffffffff1673ffffffffffffffffffffffffffffffffffffffff168152602001908152602001600020600083815260200190815260200160002060009054906101000a900473ffffffffffffffffffffffffffffffffffffffff1673ffffffffffffffffffffffffffffffffffffffff1614613ed4576040517f08c379a0000000000000000000000000000000000000000000000000000000008152600401613ecb9061737e565b60405180910390fd5b600360009054906101000a900473ffffffffffffffffffffffffffffffffffffffff1673ffffffffffffffffffffffffffffffffffffffff166342842e0e30613f1b61604f565b846040518463ffffffff1660e01b8152600401613f3a9392919061754a565b600060405180830381600087803b158015613f5457600080fd5b505af1158015613f68573d6000803e3d6000fd5b505050506000600d6000600360009054906101000a900473ffffffffffffffffffffffffffffffffffffffff1673ffffffffffffffffffffffffffffffffffffffff1673ffffffffffffffffffffffffffffffffffffffff168152602001908152602001600020600083815260200190815260200160002060006101000a81548173ffffffffffffffffffffffffffffffffffffffff021916908373ffffffffffffffffffffffffffffffffffffffff16021790555061404285838151811061403457614033617043565b5b602002602001015182610faf565b8361404d9190617581565b9250614095600260009054906101000a900473ffffffffffffffffffffffffffffffffffffffff1686848151811061408857614087617043565b5b6020026020010151611f8b565b836140a09190616e8b565b92506000600860006140b061604f565b73ffffffffffffffffffffffffffffffffffffffff1673ffffffffffffffffffffffffffffffffffffffff16815260200190815260200160002060008785815181106140ff576140fe617043565b5b602002602001015181526020019081526020016000208190555050808061412590617072565b915050613bea565b5061413e61413961604f565b616057565b80826000018190555061414f61604f565b73ffffffffffffffffffffffffffffffffffffffff167f6b1e9a916251ce0c856998aadfe9d9b512bdc7a5ca22f3fb1fb9b11374148a57845160405161419591906164d2565b60405180910390a250506001808190555050565b60008060009054906101000a900473ffffffffffffffffffffffffffffffffffffffff16905090565b600260015403614217576040517f08c379a000000000000000000000000000000000000000000000000000000000815260040161420e906171a8565b60405180910390fd5b6002600181905550600660159054906101000a900460ff161561426f576040517f08c379a000000000000000000000000000000000000000000000000000000000815260040161426690617214565b60405180910390fd5b600660149054906101000a900460ff166142be576040517f08c379a00000000000000000000000000000000000000000000000000000000081526004016142b590617280565b60405180910390fd5b8051825114614302576040517f08c379a00000000000000000000000000000000000000000000000000000000081526004016142f990617023565b60405180910390fd5b600073ffffffffffffffffffffffffffffffffffffffff16600360009054906101000a900473ffffffffffffffffffffffffffffffffffffffff1673ffffffffffffffffffffffffffffffffffffffff1603614393576040517f08c379a000000000000000000000000000000000000000000000000000000000815260040161438a90617312565b60405180910390fd5b6000600960006143a161604f565b73ffffffffffffffffffffffffffffffffffffffff1673ffffffffffffffffffffffffffffffffffffffff168152602001908152602001600020905060008160000154905060005b8451811015614aa5576143fa61604f565b73ffffffffffffffffffffffffffffffffffffffff16600260009054906101000a900473ffffffffffffffffffffffffffffffffffffffff1673ffffffffffffffffffffffffffffffffffffffff16636352211e87848151811061446157614460617043565b5b60200260200101516040518263ffffffff1660e01b815260040161448591906164d2565b602060405180830381865afa1580156144a2573d6000803e3d6000fd5b505050506040513d601f19601f820116820180604052508101906144c691906174b1565b73ffffffffffffffffffffffffffffffffffffffff161461451c576040517f08c379a00000000000000000000000000000000000000000000000000000000081526004016145139061795e565b60405180910390fd5b600084828151811061453157614530617043565b5b6020026020010151111561487e5761454761604f565b73ffffffffffffffffffffffffffffffffffffffff16600360009054906101000a900473ffffffffffffffffffffffffffffffffffffffff1673ffffffffffffffffffffffffffffffffffffffff16636352211e8684815181106145ae576145ad617043565b5b60200260200101516040518263ffffffff1660e01b81526004016145d291906164d2565b602060405180830381865afa1580156145ef573d6000803e3d6000fd5b505050506040513d601f19601f8201168201806040525081019061461391906174b1565b73ffffffffffffffffffffffffffffffffffffffff1614614669576040517f08c379a00000000000000000000000000000000000000000000000000000000081526004016146609061752a565b60405180910390fd5b600360009054906101000a900473ffffffffffffffffffffffffffffffffffffffff1673ffffffffffffffffffffffffffffffffffffffff166342842e0e6146af61604f565b308785815181106146c3576146c2617043565b5b60200260200101516040518463ffffffff1660e01b81526004016146e99392919061754a565b600060405180830381600087803b15801561470357600080fd5b505af1158015614717573d6000803e3d6000fd5b5050505061472361604f565b600d6000600360009054906101000a900473ffffffffffffffffffffffffffffffffffffffff1673ffffffffffffffffffffffffffffffffffffffff1673ffffffffffffffffffffffffffffffffffffffff168152602001908152602001600020600086848151811061479957614798617043565b5b6020026020010151815260200190815260200160002060006101000a81548173ffffffffffffffffffffffffffffffffffffffff021916908373ffffffffffffffffffffffffffffffffffffffff160217905550838181518110614800576147ff617043565b5b60200260200101516008600061481461604f565b73ffffffffffffffffffffffffffffffffffffffff1673ffffffffffffffffffffffffffffffffffffffff168152602001908152602001600020600087848151811061486357614862617043565b5b60200260200101518152602001908152602001600020819055505b600260009054906101000a900473ffffffffffffffffffffffffffffffffffffffff1673ffffffffffffffffffffffffffffffffffffffff166342842e0e6148c461604f565b308885815181106148d8576148d7617043565b5b60200260200101516040518463ffffffff1660e01b81526004016148fe9392919061754a565b600060405180830381600087803b15801561491857600080fd5b505af115801561492c573d6000803e3d6000fd5b5050505061493861604f565b600d6000600260009054906101000a900473ffffffffffffffffffffffffffffffffffffffff1673ffffffffffffffffffffffffffffffffffffffff1673ffffffffffffffffffffffffffffffffffffffff16815260200190815260200160002060008784815181106149ae576149ad617043565b5b6020026020010151815260200190815260200160002060006101000a81548173ffffffffffffffffffffffffffffffffffffffff021916908373ffffffffffffffffffffffffffffffffffffffff160217905550614a40858281518110614a1857614a17617043565b5b6020026020010151858381518110614a3357614a32617043565b5b6020026020010151610faf565b82614a4b9190616e8b565b915082600301858281518110614a6457614a63617043565b5b602002602001015190806001815401808255809150506001900390600052602060002001600090919091909150558080614a9d90617072565b9150506143e9565b50614ab6614ab161604f565b616057565b808260000181905550614ac761604f565b73ffffffffffffffffffffffffffffffffffffffff167f29028477dfd37d84e5a8132a1374ad55f994f20d0fe386b977ae27fb7603f7358551604051614b0d91906164d2565b60405180910390a25050600180819055505050565b614b2a61604f565b73ffffffffffffffffffffffffffffffffffffffff16614b486141a9565b73ffffffffffffffffffffffffffffffffffffffff1614614b9e576040517f08c379a0000000000000000000000000000000000000000000000000000000008152600401614b9590616f1c565b60405180910390fd5b600660149054906101000a900460ff1615614bee576040517f08c379a0000000000000000000000000000000000000000000000000000000008152600401614be5906179f0565b60405180910390fd5b6001600660146101000a81548160ff021916908315150217905550565b600360009054906101000a900473ffffffffffffffffffffffffffffffffffffffff1681565b600260015403614c76576040517f08c379a0000000000000000000000000000000000000000000000000000000008152600401614c6d906171a8565b60405180910390fd5b6002600181905550600660159054906101000a900460ff1615614cce576040517f08c379a0000000000000000000000000000000000000000000000000000000008152600401614cc590617214565b60405180910390fd5b600660149054906101000a900460ff16614d1d576040517f08c379a0000000000000000000000000000000000000000000000000000000008152600401614d1490617280565b60405180910390fd5b600073ffffffffffffffffffffffffffffffffffffffff16600460009054906101000a900473ffffffffffffffffffffffffffffffffffffffff1673ffffffffffffffffffffffffffffffffffffffff1603614dae576040517f08c379a0000000000000000000000000000000000000000000000000000000008152600401614da590617a82565b60405180910390fd5b600060096000614dbc61604f565b73ffffffffffffffffffffffffffffffffffffffff1673ffffffffffffffffffffffffffffffffffffffff168152602001908152602001600020905060008160000154905060005b8451811015615143576000848281518110614e2257614e21617043565b5b602002602001015111614e6a576040517f08c379a0000000000000000000000000000000000000000000000000000000008152600401614e6190617aee565b60405180910390fd5b838181518110614e7d57614e7c617043565b5b6020026020010151600460009054906101000a900473ffffffffffffffffffffffffffffffffffffffff1673ffffffffffffffffffffffffffffffffffffffff1662fdd58e614eca61604f565b888581518110614edd57614edc617043565b5b60200260200101516040518363ffffffff1660e01b8152600401614f029291906177eb565b602060405180830381865afa158015614f1f573d6000803e3d6000fd5b505050506040513d601f19601f82011682018060405250810190614f439190617b23565b1015614f84576040517f08c379a0000000000000000000000000000000000000000000000000000000008152600401614f7b90617be8565b60405180910390fd5b614fc2858281518110614f9a57614f99617043565b5b6020026020010151858381518110614fb557614fb4617043565b5b6020026020010151615333565b82614fcd9190616e8b565b9150600060076000614fdd61604f565b73ffffffffffffffffffffffffffffffffffffffff1673ffffffffffffffffffffffffffffffffffffffff168152602001908152602001600020600087848151811061502c5761502b617043565b5b60200260200101518152602001908152602001600020540361508e578260060185828151811061505f5761505e617043565b5b602002602001015190806001815401808255809150506001900390600052602060002001600090919091909150555b8381815181106150a1576150a0617043565b5b6020026020010151600760006150b561604f565b73ffffffffffffffffffffffffffffffffffffffff1673ffffffffffffffffffffffffffffffffffffffff168152602001908152602001600020600087848151811061510457615103617043565b5b6020026020010151815260200190815260200160002060008282546151299190616e8b565b92505081905550808061513b90617072565b915050614e04565b50600460009054906101000a900473ffffffffffffffffffffffffffffffffffffffff1673ffffffffffffffffffffffffffffffffffffffff16632eb2c2d661518a61604f565b3087876040518563ffffffff1660e01b81526004016151ac9493929190617687565b600060405180830381600087803b1580156151c657600080fd5b505af11580156151da573d6000803e3d6000fd5b505050506151ee6151e961604f565b616057565b8082600001819055506151ff61604f565b73ffffffffffffffffffffffffffffffffffffffff167f403f9ba7f8317cc2cfd04edb6b5d98717e931f72e91af8e60d431b5f2636fb2c855160405161524591906164d2565b60405180910390a25050600180819055505050565b600063bc197c8160e01b905095945050505050565b61527761604f565b73ffffffffffffffffffffffffffffffffffffffff166152956141a9565b73ffffffffffffffffffffffffffffffffffffffff16146152eb576040517f08c379a00000000000000000000000000000000000000000000000000000000081526004016152e290616f1c565b60405180910390fd5b80600b60008473ffffffffffffffffffffffffffffffffffffffff1673ffffffffffffffffffffffffffffffffffffffff168152602001908152602001600020819055505050565b600080600c6000600460009054906101000a900473ffffffffffffffffffffffffffffffffffffffff1673ffffffffffffffffffffffffffffffffffffffff1673ffffffffffffffffffffffffffffffffffffffff16815260200190815260200160002060008581526020019081526020016000205490506000810361541857600b6000600460009054906101000a900473ffffffffffffffffffffffffffffffffffffffff1673ffffffffffffffffffffffffffffffffffffffff1673ffffffffffffffffffffffffffffffffffffffff1681526020019081526020016000205490505b828161542491906170ba565b91505092915050565b600f818154811061543d57600080fd5b906000526020600020016000915054906101000a900473ffffffffffffffffffffffffffffffffffffffff1681565b61547461604f565b73ffffffffffffffffffffffffffffffffffffffff166154926141a9565b73ffffffffffffffffffffffffffffffffffffffff16146154e8576040517f08c379a00000000000000000000000000000000000000000000000000000000081526004016154df90616f1c565b60405180910390fd5b60328151111561552d576040517f08c379a000000000000000000000000000000000000000000000000000000000815260040161552490617c54565b60405180910390fd5b6155376001611c8d565b60005b81518110156157e5576000600d60008573ffffffffffffffffffffffffffffffffffffffff1673ffffffffffffffffffffffffffffffffffffffff168152602001908152602001600020600084848151811061559957615598617043565b5b6020026020010151815260200190815260200160002060009054906101000a900473ffffffffffffffffffffffffffffffffffffffff169050600073ffffffffffffffffffffffffffffffffffffffff168173ffffffffffffffffffffffffffffffffffffffff16141580156156cd57503073ffffffffffffffffffffffffffffffffffffffff168473ffffffffffffffffffffffffffffffffffffffff16636352211e8585815181106156505761564f617043565b5b60200260200101516040518263ffffffff1660e01b815260040161567491906164d2565b602060405180830381865afa158015615691573d6000803e3d6000fd5b505050506040513d601f19601f820116820180604052508101906156b591906174b1565b73ffffffffffffffffffffffffffffffffffffffff16145b156157d1578373ffffffffffffffffffffffffffffffffffffffff166323b872dd308386868151811061570357615702617043565b5b60200260200101516040518463ffffffff1660e01b81526004016157299392919061754a565b600060405180830381600087803b15801561574357600080fd5b505af1158015615757573d6000803e3d6000fd5b5050505082828151811061576e5761576d617043565b5b60200260200101518473ffffffffffffffffffffffffffffffffffffffff168273ffffffffffffffffffffffffffffffffffffffff167f639cf5a59a0ba34d5cf248cfcc10a75f2fdbc9f613ff75acffb80269dbed612860405160405180910390a45b5080806157dd90617072565b91505061553a565b505050565b600560009054906101000a900473ffffffffffffffffffffffffffffffffffffffff1681565b61581861604f565b73ffffffffffffffffffffffffffffffffffffffff166158366141a9565b73ffffffffffffffffffffffffffffffffffffffff161461588c576040517f08c379a000000000000000000000000000000000000000000000000000000000815260040161588390616f1c565b60405180910390fd5b6158946141a9565b73ffffffffffffffffffffffffffffffffffffffff166108fc479081150290604051600060405180830381858888f193505050501580156158d9573d6000803e3d6000fd5b50565b600660149054906101000a900460ff1681565b6158f761604f565b73ffffffffffffffffffffffffffffffffffffffff166159156141a9565b73ffffffffffffffffffffffffffffffffffffffff161461596b576040517f08c379a000000000000000000000000000000000000000000000000000000000815260040161596290616f1c565b60405180910390fd5b81600560006101000a81548173ffffffffffffffffffffffffffffffffffffffff021916908373ffffffffffffffffffffffffffffffffffffffff1602179055506003600a60008473ffffffffffffffffffffffffffffffffffffffff1673ffffffffffffffffffffffffffffffffffffffff16815260200190815260200160002060006101000a81548160ff02191690836004811115615a0f57615a0e616f3c565b5b021790555080600b60008473ffffffffffffffffffffffffffffffffffffffff1673ffffffffffffffffffffffffffffffffffffffff168152602001908152602001600020819055505050565b60608060608060606000600960008873ffffffffffffffffffffffffffffffffffffffff1673ffffffffffffffffffffffffffffffffffffffff1681526020019081526020016000206003018054905067ffffffffffffffff811115615ac557615ac461656f565b5b604051908082528060200260200182016040528015615af35781602001602082028036833780820191505090505b5090506000600867ffffffffffffffff811115615b1357615b1261656f565b5b604051908082528060200260200182016040528015615b415781602001602082028036833780820191505090505b50905060005b600960008a73ffffffffffffffffffffffffffffffffffffffff1673ffffffffffffffffffffffffffffffffffffffff16815260200190815260200160002060030180549050811015615c7557600860008a73ffffffffffffffffffffffffffffffffffffffff1673ffffffffffffffffffffffffffffffffffffffff1681526020019081526020016000206000600960008c73ffffffffffffffffffffffffffffffffffffffff1673ffffffffffffffffffffffffffffffffffffffff1681526020019081526020016000206003018381548110615c2957615c28617043565b5b9060005260206000200154815260200190815260200160002054838281518110615c5657615c55617043565b5b6020026020010181815250508080615c6d90617072565b915050615b47565b5060005b6008811015615d0557600760008a73ffffffffffffffffffffffffffffffffffffffff1673ffffffffffffffffffffffffffffffffffffffff168152602001908152602001600020600082815260200190815260200160002054828281518110615ce657615ce5617043565b5b6020026020010181815250508080615cfd90617072565b915050615c79565b50600960008973ffffffffffffffffffffffffffffffffffffffff1673ffffffffffffffffffffffffffffffffffffffff16815260200190815260200160002060030182600960008b73ffffffffffffffffffffffffffffffffffffffff1673ffffffffffffffffffffffffffffffffffffffff16815260200190815260200160002060040183600960008d73ffffffffffffffffffffffffffffffffffffffff1673ffffffffffffffffffffffffffffffffffffffff16815260200190815260200160002060050184805480602002602001604051908101604052809291908181526020018280548015615e1957602002820191906000526020600020905b815481526020019060010190808311615e05575b5050505050945082805480602002602001604051908101604052809291908181526020018280548015615e6b57602002820191906000526020600020905b815481526020019060010190808311615e57575b5050505050925080805480602002602001604051908101604052809291908181526020018280548015615ebd57602002820191906000526020600020905b815481526020019060010190808311615ea9575b5050505050905096509650965096509650505091939590929450565b600063f23a6e6160e01b905095945050505050565b615ef661604f565b73ffffffffffffffffffffffffffffffffffffffff16615f146141a9565b73ffffffffffffffffffffffffffffffffffffffff1614615f6a576040517f08c379a0000000000000000000000000000000000000000000000000000000008152600401615f6190616f1c565b60405180910390fd5b600073ffffffffffffffffffffffffffffffffffffffff168173ffffffffffffffffffffffffffffffffffffffff1603615fd9576040517f08c379a0000000000000000000000000000000000000000000000000000000008152600401615fd090617ce6565b60405180910390fd5b615fe281616231565b50565b60007f01ffc9a7000000000000000000000000000000000000000000000000000000007bffffffffffffffffffffffffffffffffffffffffffffffffffffffff1916827bffffffffffffffffffffffffffffffffffffffffffffffffffffffff1916149050919050565b600033905090565b61606081611d72565b600960008373ffffffffffffffffffffffffffffffffffffffff1673ffffffffffffffffffffffffffffffffffffffff16815260200190815260200160002060010160008282546160b19190616e8b565b9250508190555042600960008373ffffffffffffffffffffffffffffffffffffffff1673ffffffffffffffffffffffffffffffffffffffff1681526020019081526020016000206002018190555050565b6060600080600185516161159190617581565b905060008551905060005b81811015616170578587828151811061613c5761613b617043565b5b60200260200101510361615d576001816161569190616e8b565b9350616170565b808061616890617072565b915050616120565b50600083036161b4576040517f08c379a00000000000000000000000000000000000000000000000000000000081526004016161ab90617d78565b60405180910390fd5b6001836161c19190617581565b9250818314616225578582815181106161dd576161dc617043565b5b60200260200101518684815181106161f8576161f7617043565b5b6020026020010181815250508486838151811061621857616217617043565b5b6020026020010181815250505b85935050505092915050565b60008060009054906101000a900473ffffffffffffffffffffffffffffffffffffffff169050816000806101000a81548173ffffffffffffffffffffffffffffffffffffffff021916908373ffffffffffffffffffffffffffffffffffffffff1602179055508173ffffffffffffffffffffffffffffffffffffffff168173ffffffffffffffffffffffffffffffffffffffff167f8be0079c531659141344cd1fd0a4f28419497f9722a3daafe3b4186f6b6457e060405160405180910390a35050565b828054828255906000526020600020908101928215616331579160200282015b82811115616330578251825591602001919060010190616315565b5b50905061633e9190616342565b5090565b5b8082111561635b576000816000905550600101616343565b5090565b6000604051905090565b600080fd5b600080fd5b60007fffffffff0000000000000000000000000000000000000000000000000000000082169050919050565b6163a881616373565b81146163b357600080fd5b50565b6000813590506163c58161639f565b92915050565b6000602082840312156163e1576163e0616369565b5b60006163ef848285016163b6565b91505092915050565b60008115159050919050565b61640d816163f8565b82525050565b60006020820190506164286000830184616404565b92915050565b600073ffffffffffffffffffffffffffffffffffffffff82169050919050565b60006164598261642e565b9050919050565b6164698161644e565b811461647457600080fd5b50565b60008135905061648681616460565b92915050565b6000602082840312156164a2576164a1616369565b5b60006164b084828501616477565b91505092915050565b6000819050919050565b6164cc816164b9565b82525050565b60006020820190506164e760008301846164c3565b92915050565b6164f6816164b9565b811461650157600080fd5b50565b600081359050616513816164ed565b92915050565b600080604083850312156165305761652f616369565b5b600061653e85828601616477565b925050602061654f85828601616504565b9150509250929050565b600080fd5b6000601f19601f8301169050919050565b7f4e487b7100000000000000000000000000000000000000000000000000000000600052604160045260246000fd5b6165a78261655e565b810181811067ffffffffffffffff821117156165c6576165c561656f565b5b80604052505050565b60006165d961635f565b90506165e5828261659e565b919050565b600067ffffffffffffffff8211156166055761660461656f565b5b602082029050602081019050919050565b600080fd5b600061662e616629846165ea565b6165cf565b9050808382526020820190506020840283018581111561665157616650616616565b5b835b8181101561667a57806166668882616504565b845260208401935050602081019050616653565b5050509392505050565b600082601f83011261669957616698616559565b5b81356166a984826020860161661b565b91505092915050565b6000806000606084860312156166cb576166ca616369565b5b60006166d986828701616477565b935050602084013567ffffffffffffffff8111156166fa576166f961636e565b5b61670686828701616684565b925050604084013567ffffffffffffffff8111156167275761672661636e565b5b61673386828701616684565b9150509250925092565b600080fd5b60008083601f84011261675857616757616559565b5b8235905067ffffffffffffffff8111156167755761677461673d565b5b60208301915083600182028301111561679157616790616616565b5b9250929050565b6000806000806000608086880312156167b4576167b3616369565b5b60006167c288828901616477565b95505060206167d388828901616477565b94505060406167e488828901616504565b935050606086013567ffffffffffffffff8111156168055761680461636e565b5b61681188828901616742565b92509250509295509295909350565b61682981616373565b82525050565b60006020820190506168446000830184616820565b92915050565b6000806040838503121561686157616860616369565b5b600061686f85828601616504565b925050602061688085828601616504565b9150509250929050565b6168938161644e565b82525050565b60006020820190506168ae600083018461688a565b92915050565b6000819050919050565b60006168d96168d46168cf8461642e565b6168b4565b61642e565b9050919050565b60006168eb826168be565b9050919050565b60006168fd826168e0565b9050919050565b61690d816168f2565b82525050565b60006020820190506169286000830184616904565b92915050565b6000806040838503121561694557616944616369565b5b600083013567ffffffffffffffff8111156169635761696261636e565b5b61696f85828601616684565b925050602083013567ffffffffffffffff8111156169905761698f61636e565b5b61699c85828601616684565b9150509250929050565b6169af816163f8565b81146169ba57600080fd5b50565b6000813590506169cc816169a6565b92915050565b6000602082840312156169e8576169e7616369565b5b60006169f6848285016169bd565b91505092915050565b600060208284031215616a1557616a14616369565b5b600082013567ffffffffffffffff811115616a3357616a3261636e565b5b616a3f84828501616684565b91505092915050565b60008060408385031215616a5f57616a5e616369565b5b6000616a6d85828601616477565b925050602083013567ffffffffffffffff811115616a8e57616a8d61636e565b5b616a9a85828601616684565b9150509250929050565b6000616aaf826168e0565b9050919050565b616abf81616aa4565b82525050565b6000602082019050616ada6000830184616ab6565b92915050565b600080fd5b600067ffffffffffffffff821115616b0057616aff61656f565b5b616b098261655e565b9050602081019050919050565b82818337600083830152505050565b6000616b38616b3384616ae5565b6165cf565b905082815260208101848484011115616b5457616b53616ae0565b5b616b5f848285616b16565b509392505050565b600082601f830112616b7c57616b7b616559565b5b8135616b8c848260208601616b25565b91505092915050565b600080600080600060a08688031215616bb157616bb0616369565b5b6000616bbf88828901616477565b9550506020616bd088828901616477565b945050604086013567ffffffffffffffff811115616bf157616bf061636e565b5b616bfd88828901616684565b935050606086013567ffffffffffffffff811115616c1e57616c1d61636e565b5b616c2a88828901616684565b925050608086013567ffffffffffffffff811115616c4b57616c4a61636e565b5b616c5788828901616b67565b9150509295509295909350565b600060208284031215616c7a57616c79616369565b5b6000616c8884828501616504565b91505092915050565b600081519050919050565b600082825260208201905092915050565b6000819050602082019050919050565b616cc6816164b9565b82525050565b6000616cd88383616cbd565b60208301905092915050565b6000602082019050919050565b6000616cfc82616c91565b616d068185616c9c565b9350616d1183616cad565b8060005b83811015616d42578151616d298882616ccc565b9750616d3483616ce4565b925050600181019050616d15565b5085935050505092915050565b600060a0820190508181036000830152616d698188616cf1565b90508181036020830152616d7d8187616cf1565b90508181036040830152616d918186616cf1565b90508181036060830152616da58185616cf1565b90508181036080830152616db98184616cf1565b90509695505050505050565b600080600080600060a08688031215616de157616de0616369565b5b6000616def88828901616477565b9550506020616e0088828901616477565b9450506040616e1188828901616504565b9350506060616e2288828901616504565b925050608086013567ffffffffffffffff811115616e4357616e4261636e565b5b616e4f88828901616b67565b9150509295509295909350565b7f4e487b7100000000000000000000000000000000000000000000000000000000600052601160045260246000fd5b6000616e96826164b9565b9150616ea1836164b9565b9250828201905080821115616eb957616eb8616e5c565b5b92915050565b600082825260208201905092915050565b7f4f776e61626c653a2063616c6c6572206973206e6f7420746865206f776e6572600082015250565b6000616f06602083616ebf565b9150616f1182616ed0565b602082019050919050565b60006020820190508181036000830152616f3581616ef9565b9050919050565b7f4e487b7100000000000000000000000000000000000000000000000000000000600052602160045260246000fd5b7f556e6b6e6f776e20636f6e747261637400000000000000000000000000000000600082015250565b6000616fa1601083616ebf565b9150616fac82616f6b565b602082019050919050565b60006020820190508181036000830152616fd081616f94565b9050919050565b7f4c69737473206e6f742073616d65206c656e6774680000000000000000000000600082015250565b600061700d601583616ebf565b915061701882616fd7565b602082019050919050565b6000602082019050818103600083015261703c81617000565b9050919050565b7f4e487b7100000000000000000000000000000000000000000000000000000000600052603260045260246000fd5b600061707d826164b9565b91507fffffffffffffffffffffffffffffffffffffffffffffffffffffffffffffffff82036170af576170ae616e5c565b5b600182019050919050565b60006170c5826164b9565b91506170d0836164b9565b92508282026170de816164b9565b915082820484148315176170f5576170f4616e5c565b5b5092915050565b7f4e487b7100000000000000000000000000000000000000000000000000000000600052601260045260246000fd5b6000617136826164b9565b9150617141836164b9565b925082617151576171506170fc565b5b828204905092915050565b7f5265656e7472616e637947756172643a207265656e7472616e742063616c6c00600082015250565b6000617192601f83616ebf565b915061719d8261715c565b602082019050919050565b600060208201905081810360008301526171c181617185565b9050919050565b7f4465706f73697420706175736564000000000000000000000000000000000000600082015250565b60006171fe600e83616ebf565b9150617209826171c8565b602082019050919050565b6000602082019050818103600083015261722d816171f1565b9050919050565b7f5374616b696e67206973206e6f74206c61756e63686564207965740000000000600082015250565b600061726a601b83616ebf565b915061727582617234565b602082019050919050565b600060208201905081810360008301526172998161725d565b9050919050565b7f4c6f6f742042616773207374616b696e67206973206e6f742079657420656e6160008201527f626c656400000000000000000000000000000000000000000000000000000000602082015250565b60006172fc602483616ebf565b9150617307826172a0565b604082019050919050565b6000602082019050818103600083015261732b816172ef565b9050919050565b7f4e6f7420746865206f776e6572206f66207374616b6564204170650000000000600082015250565b6000617368601b83616ebf565b915061737382617332565b602082019050919050565b600060208201905081810360008301526173978161735b565b9050919050565b7f53656c6563746564207374616b65642041706520616c7265616479206861732060008201527f4c6f6f74207374616b656420746f676574686572000000000000000000000000602082015250565b60006173fa603483616ebf565b91506174058261739e565b604082019050919050565b60006020820190508181036000830152617429816173ed565b9050919050565b7f496e76616c6964204c6f6f74204e465400000000000000000000000000000000600082015250565b6000617466601083616ebf565b915061747182617430565b602082019050919050565b6000602082019050818103600083015261749581617459565b9050919050565b6000815190506174ab81616460565b92915050565b6000602082840312156174c7576174c6616369565b5b60006174d58482850161749c565b91505092915050565b7f4e6f7420746865206f776e6572206f66207374616b696e67204c6f6f74000000600082015250565b6000617514601d83616ebf565b915061751f826174de565b602082019050919050565b6000602082019050818103600083015261754381617507565b9050919050565b600060608201905061755f600083018661688a565b61756c602083018561688a565b61757960408301846164c3565b949350505050565b600061758c826164b9565b9150617597836164b9565b92508282039050818111156175af576175ae616e5c565b5b92915050565b7f4e6f7420746865206f776e6572206f66207374616b6564205065740000000000600082015250565b60006175eb601b83616ebf565b91506175f6826175b5565b602082019050919050565b6000602082019050818103600083015261761a816175de565b9050919050565b7f4e487b7100000000000000000000000000000000000000000000000000000000600052603160045260246000fd5b600082825260208201905092915050565b50565b6000617671600083617650565b915061767c82617661565b600082019050919050565b600060a08201905061769c600083018761688a565b6176a9602083018661688a565b81810360408301526176bb8185616cf1565b905081810360608301526176cf8184616cf1565b905081810360808301526176e281617664565b905095945050505050565b7f556e6b6e6f776e20636f6e7472616374206f72207374616b696e67206973206e60008201527f6f742079657420656e61626c656420666f722074686973204e46540000000000602082015250565b6000617749603b83616ebf565b9150617754826176ed565b604082019050919050565b600060208201905081810360008301526177788161773c565b9050919050565b7f4e6f7420746865206f776e657200000000000000000000000000000000000000600082015250565b60006177b5600d83616ebf565b91506177c08261777f565b602082019050919050565b600060208201905081810360008301526177e4816177a8565b9050919050565b6000604082019050617800600083018561688a565b61780d60208301846164c3565b9392505050565b7f4e6f7420746865206f776e6572206f66207374616b696e67204e465400000000600082015250565b600061784a601c83616ebf565b915061785582617814565b602082019050919050565b600060208201905081810360008301526178798161783d565b9050919050565b7f53656c6563746564207374616b65642041706520646f6573206e6f742068617660008201527f6520616e79204c6f6f74207374616b6564207769746800000000000000000000602082015250565b60006178dc603683616ebf565b91506178e782617880565b604082019050919050565b6000602082019050818103600083015261790b816178cf565b9050919050565b7f4e6f7420746865206f776e6572206f66207374616b696e672041706500000000600082015250565b6000617948601c83616ebf565b915061795382617912565b602082019050919050565b600060208201905081810360008301526179778161793b565b9050919050565b7f5374616b696e6720686173206265656e206c61756e6368656420616c7265616460008201527f7900000000000000000000000000000000000000000000000000000000000000602082015250565b60006179da602183616ebf565b91506179e58261797e565b604082019050919050565b60006020820190508181036000830152617a09816179cd565b9050919050565b7f4d6f6f6e2050657473207374616b696e67206973206e6f742079657420656e6160008201527f626c656400000000000000000000000000000000000000000000000000000000602082015250565b6000617a6c602483616ebf565b9150617a7782617a10565b604082019050919050565b60006020820190508181036000830152617a9b81617a5f565b9050919050565b7f496e76616c696420616d6f756e74000000000000000000000000000000000000600082015250565b6000617ad8600e83616ebf565b9150617ae382617aa2565b602082019050919050565b60006020820190508181036000830152617b0781617acb565b9050919050565b600081519050617b1d816164ed565b92915050565b600060208284031215617b3957617b38616369565b5b6000617b4784828501617b0e565b91505092915050565b7f4e6f7420746865206f776e6572206f66207374616b696e6720506574206f722060008201527f696e73756666696369616e742062616c616e6365206f66207374616b696e672060208201527f5065740000000000000000000000000000000000000000000000000000000000604082015250565b6000617bd2604383616ebf565b9150617bdd82617b50565b606082019050919050565b60006020820190508181036000830152617c0181617bc5565b9050919050565b7f3530206973206d61782070657220747800000000000000000000000000000000600082015250565b6000617c3e601083616ebf565b9150617c4982617c08565b602082019050919050565b60006020820190508181036000830152617c6d81617c31565b9050919050565b7f4f776e61626c653a206e6577206f776e657220697320746865207a65726f206160008201527f6464726573730000000000000000000000000000000000000000000000000000602082015250565b6000617cd0602683616ebf565b9150617cdb82617c74565b604082019050919050565b60006020820190508181036000830152617cff81617cc3565b9050919050565b7f4e6f7420746865206f776e6572206f72206475706c6963617465204e4654206960008201527f6e206c6973740000000000000000000000000000000000000000000000000000602082015250565b6000617d62602683616ebf565b9150617d6d82617d06565b604082019050919050565b60006020820190508181036000830152617d9181617d55565b905091905056fea2646970667358221220e789386c4072c38d8d3755169a1110ee9b7e46410601fa2a66c129ee174ad28764736f6c63430008110033",
  "immutableReferences": {},
  "source": "/**\n *Submitted for verification at Etherscan.io on 2022-02-27\n */\n\npragma solidity ^0.8.7;\n\n// SPDX-License-Identifier: MIT\n\n// OpenZeppelin Contracts v4.4.1 (utils/Context.sol)\n/**\n * @dev Provides information about the current execution context, including the\n * sender of the transaction and its data. While these are generally available\n * via msg.sender and msg.data, they should not be accessed in such a direct\n * manner, since when dealing with meta-transactions the account sending and\n * paying for execution may not be the actual sender (as far as an application\n * is concerned).\n *\n * This contract is only required for intermediate, library-like contracts.\n */\nabstract contract Context {\n    function _msgSender() internal view virtual returns (address) {\n        return msg.sender;\n    }\n\n    function _msgData() internal view virtual returns (bytes calldata) {\n        return msg.data;\n    }\n}\n\n// OpenZeppelin Contracts v4.4.1 (access/Ownable.sol)\n/**\n * @dev Contract module which provides a basic access control mechanism, where\n * there is an account (an owner) that can be granted exclusive access to\n * specific functions.\n *\n * By default, the owner account will be the one that deploys the contract. This\n * can later be changed with {transferOwnership}.\n *\n * This module is used through inheritance. It will make available the modifier\n * `onlyOwner`, which can be applied to your functions to restrict their use to\n * the owner.\n */\nabstract contract Ownable is Context {\n    address private _owner;\n\n    event OwnershipTransferred(\n        address indexed previousOwner,\n        address indexed newOwner\n    );\n\n    /**\n     * @dev Initializes the contract setting the deployer as the initial owner.\n     */\n    constructor() {\n        _transferOwnership(_msgSender());\n    }\n\n    /**\n     * @dev Returns the address of the current owner.\n     */\n    function owner() public view virtual returns (address) {\n        return _owner;\n    }\n\n    /**\n     * @dev Throws if called by any account other than the owner.\n     */\n    modifier onlyOwner() {\n        require(owner() == _msgSender(), \"Ownable: caller is not the owner\");\n        _;\n    }\n\n    /**\n     * @dev Leaves the contract without owner. It will not be possible to call\n     * `onlyOwner` functions anymore. Can only be called by the current owner.\n     *\n     * NOTE: Renouncing ownership will leave the contract without an owner,\n     * thereby removing any functionality that is only available to the owner.\n     */\n    function renounceOwnership() public virtual onlyOwner {\n        _transferOwnership(address(0));\n    }\n\n    /**\n     * @dev Transfers ownership of the contract to a new account (`newOwner`).\n     * Can only be called by the current owner.\n     */\n    function transferOwnership(address newOwner) public virtual onlyOwner {\n        require(\n            newOwner != address(0),\n            \"Ownable: new owner is the zero address\"\n        );\n        _transferOwnership(newOwner);\n    }\n\n    /**\n     * @dev Transfers ownership of the contract to a new account (`newOwner`).\n     * Internal function without access restriction.\n     */\n    function _transferOwnership(address newOwner) internal virtual {\n        address oldOwner = _owner;\n        _owner = newOwner;\n        emit OwnershipTransferred(oldOwner, newOwner);\n    }\n}\n\n// OpenZeppelin Contracts v4.4.1 (utils/introspection/IERC165.sol)\n/**\n * @dev Interface of the ERC165 standard, as defined in the\n * https://eips.ethereum.org/EIPS/eip-165[EIP].\n *\n * Implementers can declare support of contract interfaces, which can then be\n * queried by others ({ERC165Checker}).\n *\n * For an implementation, see {ERC165}.\n */\ninterface IERC165 {\n    /**\n     * @dev Returns true if this contract implements the interface defined by\n     * `interfaceId`. See the corresponding\n     * https://eips.ethereum.org/EIPS/eip-165#how-interfaces-are-identified[EIP section]\n     * to learn more about how these ids are created.\n     *\n     * This function call must use less than 30 000 gas.\n     */\n    function supportsInterface(bytes4 interfaceId) external view returns (bool);\n}\n\n// OpenZeppelin Contracts v4.4.1 (token/ERC721/IERC721.sol)\n/**\n * @dev Required interface of an ERC721 compliant contract.\n */\ninterface IERC721 is IERC165 {\n    /**\n     * @dev Emitted when `tokenId` token is transferred from `from` to `to`.\n     */\n    event Transfer(\n        address indexed from,\n        address indexed to,\n        uint256 indexed tokenId\n    );\n\n    /**\n     * @dev Emitted when `owner` enables `approved` to manage the `tokenId` token.\n     */\n    event Approval(\n        address indexed owner,\n        address indexed approved,\n        uint256 indexed tokenId\n    );\n\n    /**\n     * @dev Emitted when `owner` enables or disables (`approved`) `operator` to manage all of its assets.\n     */\n    event ApprovalForAll(\n        address indexed owner,\n        address indexed operator,\n        bool approved\n    );\n\n    /**\n     * @dev Returns the number of tokens in ``owner``'s account.\n     */\n    function balanceOf(address owner) external view returns (uint256 balance);\n\n    /**\n     * @dev Returns the owner of the `tokenId` token.\n     *\n     * Requirements:\n     *\n     * - `tokenId` must exist.\n     */\n    function ownerOf(uint256 tokenId) external view returns (address owner);\n\n    /**\n     * @dev Safely transfers `tokenId` token from `from` to `to`, checking first that contract recipients\n     * are aware of the ERC721 protocol to prevent tokens from being forever locked.\n     *\n     * Requirements:\n     *\n     * - `from` cannot be the zero address.\n     * - `to` cannot be the zero address.\n     * - `tokenId` token must exist and be owned by `from`.\n     * - If the caller is not `from`, it must be have been allowed to move this token by either {approve} or {setApprovalForAll}.\n     * - If `to` refers to a smart contract, it must implement {IERC721Receiver-onERC721Received}, which is called upon a safe transfer.\n     *\n     * Emits a {Transfer} event.\n     */\n    function safeTransferFrom(\n        address from,\n        address to,\n        uint256 tokenId\n    ) external;\n\n    /**\n     * @dev Transfers `tokenId` token from `from` to `to`.\n     *\n     * WARNING: Usage of this method is discouraged, use {safeTransferFrom} whenever possible.\n     *\n     * Requirements:\n     *\n     * - `from` cannot be the zero address.\n     * - `to` cannot be the zero address.\n     * - `tokenId` token must be owned by `from`.\n     * - If the caller is not `from`, it must be approved to move this token by either {approve} or {setApprovalForAll}.\n     *\n     * Emits a {Transfer} event.\n     */\n    function transferFrom(address from, address to, uint256 tokenId) external;\n\n    /**\n     * @dev Gives permission to `to` to transfer `tokenId` token to another account.\n     * The approval is cleared when the token is transferred.\n     *\n     * Only a single account can be approved at a time, so approving the zero address clears previous approvals.\n     *\n     * Requirements:\n     *\n     * - The caller must own the token or be an approved operator.\n     * - `tokenId` must exist.\n     *\n     * Emits an {Approval} event.\n     */\n    function approve(address to, uint256 tokenId) external;\n\n    /**\n     * @dev Returns the account approved for `tokenId` token.\n     *\n     * Requirements:\n     *\n     * - `tokenId` must exist.\n     */\n    function getApproved(\n        uint256 tokenId\n    ) external view returns (address operator);\n\n    /**\n     * @dev Approve or remove `operator` as an operator for the caller.\n     * Operators can call {transferFrom} or {safeTransferFrom} for any token owned by the caller.\n     *\n     * Requirements:\n     *\n     * - The `operator` cannot be the caller.\n     *\n     * Emits an {ApprovalForAll} event.\n     */\n    function setApprovalForAll(address operator, bool _approved) external;\n\n    /**\n     * @dev Returns if the `operator` is allowed to manage all of the assets of `owner`.\n     *\n     * See {setApprovalForAll}\n     */\n    function isApprovedForAll(\n        address owner,\n        address operator\n    ) external view returns (bool);\n\n    /**\n     * @dev Safely transfers `tokenId` token from `from` to `to`.\n     *\n     * Requirements:\n     *\n     * - `from` cannot be the zero address.\n     * - `to` cannot be the zero address.\n     * - `tokenId` token must exist and be owned by `from`.\n     * - If the caller is not `from`, it must be approved to move this token by either {approve} or {setApprovalForAll}.\n     * - If `to` refers to a smart contract, it must implement {IERC721Receiver-onERC721Received}, which is called upon a safe transfer.\n     *\n     * Emits a {Transfer} event.\n     */\n    function safeTransferFrom(\n        address from,\n        address to,\n        uint256 tokenId,\n        bytes calldata data\n    ) external;\n}\n\n// OpenZeppelin Contracts v4.4.1 (token/ERC1155/IERC1155.sol)\n/**\n * @dev Required interface of an ERC1155 compliant contract, as defined in the\n * https://eips.ethereum.org/EIPS/eip-1155[EIP].\n *\n * _Available since v3.1._\n */\ninterface IERC1155 is IERC165 {\n    /**\n     * @dev Emitted when `value` tokens of token type `id` are transferred from `from` to `to` by `operator`.\n     */\n    event TransferSingle(\n        address indexed operator,\n        address indexed from,\n        address indexed to,\n        uint256 id,\n        uint256 value\n    );\n\n    /**\n     * @dev Equivalent to multiple {TransferSingle} events, where `operator`, `from` and `to` are the same for all\n     * transfers.\n     */\n    event TransferBatch(\n        address indexed operator,\n        address indexed from,\n        address indexed to,\n        uint256[] ids,\n        uint256[] values\n    );\n\n    /**\n     * @dev Emitted when `account` grants or revokes permission to `operator` to transfer their tokens, according to\n     * `approved`.\n     */\n    event ApprovalForAll(\n        address indexed account,\n        address indexed operator,\n        bool approved\n    );\n\n    /**\n     * @dev Emitted when the URI for token type `id` changes to `value`, if it is a non-programmatic URI.\n     *\n     * If an {URI} event was emitted for `id`, the standard\n     * https://eips.ethereum.org/EIPS/eip-1155#metadata-extensions[guarantees] that `value` will equal the value\n     * returned by {IERC1155MetadataURI-uri}.\n     */\n    event URI(string value, uint256 indexed id);\n\n    /**\n     * @dev Returns the amount of tokens of token type `id` owned by `account`.\n     *\n     * Requirements:\n     *\n     * - `account` cannot be the zero address.\n     */\n    function balanceOf(\n        address account,\n        uint256 id\n    ) external view returns (uint256);\n\n    /**\n     * @dev xref:ROOT:erc1155.adoc#batch-operations[Batched] version of {balanceOf}.\n     *\n     * Requirements:\n     *\n     * - `accounts` and `ids` must have the same length.\n     */\n    function balanceOfBatch(\n        address[] calldata accounts,\n        uint256[] calldata ids\n    ) external view returns (uint256[] memory);\n\n    /**\n     * @dev Grants or revokes permission to `operator` to transfer the caller's tokens, according to `approved`,\n     *\n     * Emits an {ApprovalForAll} event.\n     *\n     * Requirements:\n     *\n     * - `operator` cannot be the caller.\n     */\n    function setApprovalForAll(address operator, bool approved) external;\n\n    /**\n     * @dev Returns true if `operator` is approved to transfer ``account``'s tokens.\n     *\n     * See {setApprovalForAll}.\n     */\n    function isApprovedForAll(\n        address account,\n        address operator\n    ) external view returns (bool);\n\n    /**\n     * @dev Transfers `amount` tokens of token type `id` from `from` to `to`.\n     *\n     * Emits a {TransferSingle} event.\n     *\n     * Requirements:\n     *\n     * - `to` cannot be the zero address.\n     * - If the caller is not `from`, it must be have been approved to spend ``from``'s tokens via {setApprovalForAll}.\n     * - `from` must have a balance of tokens of type `id` of at least `amount`.\n     * - If `to` refers to a smart contract, it must implement {IERC1155Receiver-onERC1155Received} and return the\n     * acceptance magic value.\n     */\n    function safeTransferFrom(\n        address from,\n        address to,\n        uint256 id,\n        uint256 amount,\n        bytes calldata data\n    ) external;\n\n    /**\n     * @dev xref:ROOT:erc1155.adoc#batch-operations[Batched] version of {safeTransferFrom}.\n     *\n     * Emits a {TransferBatch} event.\n     *\n     * Requirements:\n     *\n     * - `ids` and `amounts` must have the same length.\n     * - If `to` refers to a smart contract, it must implement {IERC1155Receiver-onERC1155BatchReceived} and return the\n     * acceptance magic value.\n     */\n    function safeBatchTransferFrom(\n        address from,\n        address to,\n        uint256[] calldata ids,\n        uint256[] calldata amounts,\n        bytes calldata data\n    ) external;\n}\n\n// OpenZeppelin Contracts (last updated v4.5.0) (token/ERC20/IERC20.sol)\n/**\n * @dev Interface of the ERC20 standard as defined in the EIP.\n */\ninterface IERC20 {\n    /**\n     * @dev Returns the amount of tokens in existence.\n     */\n    function totalSupply() external view returns (uint256);\n\n    /**\n     * @dev Returns the amount of tokens owned by `account`.\n     */\n    function balanceOf(address account) external view returns (uint256);\n\n    /**\n     * @dev Moves `amount` tokens from the caller's account to `to`.\n     *\n     * Returns a boolean value indicating whether the operation succeeded.\n     *\n     * Emits a {Transfer} event.\n     */\n    function transfer(address to, uint256 amount) external returns (bool);\n\n    /**\n     * @dev Returns the remaining number of tokens that `spender` will be\n     * allowed to spend on behalf of `owner` through {transferFrom}. This is\n     * zero by default.\n     *\n     * This value changes when {approve} or {transferFrom} are called.\n     */\n    function allowance(\n        address owner,\n        address spender\n    ) external view returns (uint256);\n\n    /**\n     * @dev Sets `amount` as the allowance of `spender` over the caller's tokens.\n     *\n     * Returns a boolean value indicating whether the operation succeeded.\n     *\n     * IMPORTANT: Beware that changing an allowance with this method brings the risk\n     * that someone may use both the old and the new allowance by unfortunate\n     * transaction ordering. One possible solution to mitigate this race\n     * condition is to first reduce the spender's allowance to 0 and set the\n     * desired value afterwards:\n     * https://github.com/ethereum/EIPs/issues/20#issuecomment-263524729\n     *\n     * Emits an {Approval} event.\n     */\n    function approve(address spender, uint256 amount) external returns (bool);\n\n    /**\n     * @dev Moves `amount` tokens from `from` to `to` using the\n     * allowance mechanism. `amount` is then deducted from the caller's\n     * allowance.\n     *\n     * Returns a boolean value indicating whether the operation succeeded.\n     *\n     * Emits a {Transfer} event.\n     */\n    function transferFrom(\n        address from,\n        address to,\n        uint256 amount\n    ) external returns (bool);\n\n    /**\n     * @dev Emitted when `value` tokens are moved from one account (`from`) to\n     * another (`to`).\n     *\n     * Note that `value` may be zero.\n     */\n    event Transfer(address indexed from, address indexed to, uint256 value);\n\n    /**\n     * @dev Emitted when the allowance of a `spender` for an `owner` is set by\n     * a call to {approve}. `value` is the new allowance.\n     */\n    event Approval(\n        address indexed owner,\n        address indexed spender,\n        uint256 value\n    );\n}\n\n// OpenZeppelin Contracts v4.4.1 (security/ReentrancyGuard.sol)\n/**\n * @dev Contract module that helps prevent reentrant calls to a function.\n *\n * Inheriting from `ReentrancyGuard` will make the {nonReentrant} modifier\n * available, which can be applied to functions to make sure there are no nested\n * (reentrant) calls to them.\n *\n * Note that because there is a single `nonReentrant` guard, functions marked as\n * `nonReentrant` may not call one another. This can be worked around by making\n * those functions `private`, and then adding `external` `nonReentrant` entry\n * points to them.\n *\n * TIP: If you would like to learn more about reentrancy and alternative ways\n * to protect against it, check out our blog post\n * https://blog.openzeppelin.com/reentrancy-after-istanbul/[Reentrancy After Istanbul].\n */\nabstract contract ReentrancyGuard {\n    // Booleans are more expensive than uint256 or any type that takes up a full\n    // word because each write operation emits an extra SLOAD to first read the\n    // slot's contents, replace the bits taken up by the boolean, and then write\n    // back. This is the compiler's defense against contract upgrades and\n    // pointer aliasing, and it cannot be disabled.\n\n    // The values being non-zero value makes deployment a bit more expensive,\n    // but in exchange the refund on every call to nonReentrant will be lower in\n    // amount. Since refunds are capped to a percentage of the total\n    // transaction's gas, it is best to keep them low in cases like this one, to\n    // increase the likelihood of the full refund coming into effect.\n    uint256 private constant _NOT_ENTERED = 1;\n    uint256 private constant _ENTERED = 2;\n\n    uint256 private _status;\n\n    constructor() {\n        _status = _NOT_ENTERED;\n    }\n\n    /**\n     * @dev Prevents a contract from calling itself, directly or indirectly.\n     * Calling a `nonReentrant` function from another `nonReentrant`\n     * function is not supported. It is possible to prevent this from happening\n     * by making the `nonReentrant` function external, and making it call a\n     * `private` function that does the actual work.\n     */\n    modifier nonReentrant() {\n        // On the first call to nonReentrant, _notEntered will be true\n        require(_status != _ENTERED, \"ReentrancyGuard: reentrant call\");\n\n        // Any calls to nonReentrant after this point will fail\n        _status = _ENTERED;\n\n        _;\n\n        // By storing the original value once again, a refund is triggered (see\n        // https://eips.ethereum.org/EIPS/eip-2200)\n        _status = _NOT_ENTERED;\n    }\n}\n\n// OpenZeppelin Contracts (last updated v4.5.0) (token/ERC1155/IERC1155Receiver.sol)\n/**\n * @dev _Available since v3.1._\n */\ninterface IERC1155Receiver is IERC165 {\n    /**\n     * @dev Handles the receipt of a single ERC1155 token type. This function is\n     * called at the end of a `safeTransferFrom` after the balance has been updated.\n     *\n     * NOTE: To accept the transfer, this must return\n     * `bytes4(keccak256(\"onERC1155Received(address,address,uint256,uint256,bytes)\"))`\n     * (i.e. 0xf23a6e61, or its own function selector).\n     *\n     * @param operator The address which initiated the transfer (i.e. msg.sender)\n     * @param from The address which previously owned the token\n     * @param id The ID of the token being transferred\n     * @param value The amount of tokens being transferred\n     * @param data Additional data with no specified format\n     * @return `bytes4(keccak256(\"onERC1155Received(address,address,uint256,uint256,bytes)\"))` if transfer is allowed\n     */\n    function onERC1155Received(\n        address operator,\n        address from,\n        uint256 id,\n        uint256 value,\n        bytes calldata data\n    ) external returns (bytes4);\n\n    /**\n     * @dev Handles the receipt of a multiple ERC1155 token types. This function\n     * is called at the end of a `safeBatchTransferFrom` after the balances have\n     * been updated.\n     *\n     * NOTE: To accept the transfer(s), this must return\n     * `bytes4(keccak256(\"onERC1155BatchReceived(address,address,uint256[],uint256[],bytes)\"))`\n     * (i.e. 0xbc197c81, or its own function selector).\n     *\n     * @param operator The address which initiated the batch transfer (i.e. msg.sender)\n     * @param from The address which previously owned the token\n     * @param ids An array containing ids of each token being transferred (order and length must match values array)\n     * @param values An array containing amounts of each token being transferred (order and length must match ids array)\n     * @param data Additional data with no specified format\n     * @return `bytes4(keccak256(\"onERC1155BatchReceived(address,address,uint256[],uint256[],bytes)\"))` if transfer is allowed\n     */\n    function onERC1155BatchReceived(\n        address operator,\n        address from,\n        uint256[] calldata ids,\n        uint256[] calldata values,\n        bytes calldata data\n    ) external returns (bytes4);\n}\n\n// OpenZeppelin Contracts v4.4.1 (utils/introspection/ERC165.sol)\n/**\n * @dev Implementation of the {IERC165} interface.\n *\n * Contracts that want to implement ERC165 should inherit from this contract and override {supportsInterface} to check\n * for the additional interface id that will be supported. For example:\n *\n * ```solidity\n * function supportsInterface(bytes4 interfaceId) public view virtual override returns (bool) {\n *     return interfaceId == type(MyInterface).interfaceId || super.supportsInterface(interfaceId);\n * }\n * ```\n *\n * Alternatively, {ERC165Storage} provides an easier to use but more expensive implementation.\n */\nabstract contract ERC165 is IERC165 {\n    /**\n     * @dev See {IERC165-supportsInterface}.\n     */\n    function supportsInterface(\n        bytes4 interfaceId\n    ) public view virtual override returns (bool) {\n        return interfaceId == type(IERC165).interfaceId;\n    }\n}\n\n// OpenZeppelin Contracts v4.4.1 (token/ERC1155/utils/ERC1155Receiver.sol)\n/**\n * @dev _Available since v3.1._\n */\nabstract contract ERC1155Receiver is ERC165, IERC1155Receiver {\n    /**\n     * @dev See {IERC165-supportsInterface}.\n     */\n    function supportsInterface(\n        bytes4 interfaceId\n    ) public view virtual override(ERC165, IERC165) returns (bool) {\n        return\n            interfaceId == type(IERC1155Receiver).interfaceId ||\n            super.supportsInterface(interfaceId);\n    }\n}\n\n// OpenZeppelin Contracts (last updated v4.5.0) (token/ERC1155/utils/ERC1155Holder.sol)\n/**\n * Simple implementation of `ERC1155Receiver` that will allow a contract to hold ERC1155 tokens.\n *\n * IMPORTANT: When inheriting this contract, you must include a way to use the received tokens, otherwise they will be\n * stuck.\n *\n * @dev _Available since v3.1._\n */\ncontract ERC1155Holder is ERC1155Receiver {\n    function onERC1155Received(\n        address,\n        address,\n        uint256,\n        uint256,\n        bytes memory\n    ) public virtual override returns (bytes4) {\n        return this.onERC1155Received.selector;\n    }\n\n    function onERC1155BatchReceived(\n        address,\n        address,\n        uint256[] memory,\n        uint256[] memory,\n        bytes memory\n    ) public virtual override returns (bytes4) {\n        return this.onERC1155BatchReceived.selector;\n    }\n}\n\ncontract MoonStaking is ERC1155Holder, Ownable, ReentrancyGuard {\n    IERC721 public ApeNft;\n    IERC721 public LootNft;\n    IERC1155 public PetNft;\n    IERC721 public TreasuryNft;\n    IERC721 public BreedingNft;\n\n    uint256 public constant SECONDS_IN_DAY = 86400;\n\n    bool public stakingLaunched;\n    bool public depositPaused;\n\n    mapping(address => mapping(uint256 => uint256)) stakerPetAmounts;\n    mapping(address => mapping(uint256 => uint256)) stakerApeLoot;\n\n    struct Staker {\n        uint256 currentYield;\n        uint256 accumulatedAmount;\n        uint256 lastCheckpoint;\n        uint256[] stakedAPE;\n        uint256[] stakedTREASURY;\n        uint256[] stakedBREEDING;\n        uint256[] stakedPET;\n    }\n\n    mapping(address => Staker) private _stakers;\n\n    enum ContractTypes {\n        APE,\n        LOOT,\n        PET,\n        TREASURY,\n        BREEDING\n    }\n\n    mapping(address => ContractTypes) private _contractTypes;\n\n    mapping(address => uint256) public _baseRates;\n    mapping(address => mapping(uint256 => uint256)) private _individualRates;\n    mapping(address => mapping(uint256 => address)) private _ownerOfToken;\n    mapping(address => bool) private _authorised;\n    address[] public authorisedLog;\n\n    event Stake721(\n        address indexed staker,\n        address contractAddress,\n        uint256 tokensAmount\n    );\n    event StakeApesWithLoots(address indexed staker, uint256 apesAmount);\n    event AddLootToStakedApes(address indexed staker, uint256 apesAmount);\n    event RemoveLootFromStakedApes(address indexed staker, uint256 lootsAmount);\n    event StakePets(address indexed staker, uint256 numberOfPetIds);\n    event Unstake721(\n        address indexed staker,\n        address contractAddress,\n        uint256 tokensAmount\n    );\n    event UnstakePets(address indexed staker, uint256 numberOfPetIds);\n    event ForceWithdraw721(\n        address indexed receiver,\n        address indexed tokenAddress,\n        uint256 indexed tokenId\n    );\n\n    constructor(address _ape) {\n        ApeNft = IERC721(_ape);\n        _contractTypes[_ape] = ContractTypes.APE;\n        _baseRates[_ape] = 150 ether;\n    }\n\n    modifier authorised() {\n        require(\n            _authorised[_msgSender()],\n            \"The token contract is not authorised\"\n        );\n        _;\n    }\n\n    function stake721(\n        address contractAddress,\n        uint256[] memory tokenIds\n    ) public nonReentrant {\n        require(!depositPaused, \"Deposit paused\");\n        require(stakingLaunched, \"Staking is not launched yet\");\n        require(\n            (contractAddress != address(0) &&\n                contractAddress == address(ApeNft)) ||\n                contractAddress == address(TreasuryNft) ||\n                contractAddress == address(BreedingNft),\n            \"Unknown contract or staking is not yet enabled for this NFT\"\n        );\n        ContractTypes contractType = _contractTypes[contractAddress];\n\n        Staker storage user = _stakers[_msgSender()];\n        uint256 newYield = user.currentYield;\n\n        for (uint256 i; i < tokenIds.length; i++) {\n            require(\n                IERC721(contractAddress).ownerOf(tokenIds[i]) == _msgSender(),\n                \"Not the owner of staking NFT\"\n            );\n            IERC721(contractAddress).safeTransferFrom(\n                _msgSender(),\n                address(this),\n                tokenIds[i]\n            );\n\n            _ownerOfToken[contractAddress][tokenIds[i]] = _msgSender();\n\n            newYield += getTokenYield(contractAddress, tokenIds[i]);\n\n            if (contractType == ContractTypes.APE) {\n                user.stakedAPE.push(tokenIds[i]);\n            }\n            if (contractType == ContractTypes.BREEDING) {\n                user.stakedBREEDING.push(tokenIds[i]);\n            }\n            if (contractType == ContractTypes.TREASURY) {\n                user.stakedTREASURY.push(tokenIds[i]);\n            }\n        }\n\n        accumulate(_msgSender());\n        user.currentYield = newYield;\n\n        emit Stake721(_msgSender(), contractAddress, tokenIds.length);\n    }\n\n    function stake1155(\n        uint256[] memory tokenIds,\n        uint256[] memory amounts\n    ) public nonReentrant {\n        require(!depositPaused, \"Deposit paused\");\n        require(stakingLaunched, \"Staking is not launched yet\");\n        require(\n            address(PetNft) != address(0),\n            \"Moon Pets staking is not yet enabled\"\n        );\n\n        Staker storage user = _stakers[_msgSender()];\n        uint256 newYield = user.currentYield;\n\n        for (uint256 i; i < tokenIds.length; i++) {\n            require(amounts[i] > 0, \"Invalid amount\");\n            require(\n                PetNft.balanceOf(_msgSender(), tokenIds[i]) >= amounts[i],\n                \"Not the owner of staking Pet or insufficiant balance of staking Pet\"\n            );\n\n            newYield += getPetTokenYield(tokenIds[i], amounts[i]);\n            if (stakerPetAmounts[_msgSender()][tokenIds[i]] == 0) {\n                user.stakedPET.push(tokenIds[i]);\n            }\n            stakerPetAmounts[_msgSender()][tokenIds[i]] += amounts[i];\n        }\n\n        PetNft.safeBatchTransferFrom(\n            _msgSender(),\n            address(this),\n            tokenIds,\n            amounts,\n            \"\"\n        );\n\n        accumulate(_msgSender());\n        user.currentYield = newYield;\n\n        emit StakePets(_msgSender(), tokenIds.length);\n    }\n\n    function addLootToStakedApes(\n        uint256[] memory apeIds,\n        uint256[] memory lootIds\n    ) public nonReentrant {\n        require(!depositPaused, \"Deposit paused\");\n        require(stakingLaunched, \"Staking is not launched yet\");\n        require(apeIds.length == lootIds.length, \"Lists not same length\");\n        require(\n            address(LootNft) != address(0),\n            \"Loot Bags staking is not yet enabled\"\n        );\n\n        Staker storage user = _stakers[_msgSender()];\n        uint256 newYield = user.currentYield;\n\n        for (uint256 i; i < apeIds.length; i++) {\n            require(\n                _ownerOfToken[address(ApeNft)][apeIds[i]] == _msgSender(),\n                \"Not the owner of staked Ape\"\n            );\n            require(\n                stakerApeLoot[_msgSender()][apeIds[i]] == 0,\n                \"Selected staked Ape already has Loot staked together\"\n            );\n            require(lootIds[i] > 0, \"Invalid Loot NFT\");\n            require(\n                IERC721(address(LootNft)).ownerOf(lootIds[i]) == _msgSender(),\n                \"Not the owner of staking Loot\"\n            );\n            IERC721(address(LootNft)).safeTransferFrom(\n                _msgSender(),\n                address(this),\n                lootIds[i]\n            );\n\n            _ownerOfToken[address(LootNft)][lootIds[i]] = _msgSender();\n\n            newYield +=\n                getApeLootTokenYield(apeIds[i], lootIds[i]) -\n                getTokenYield(address(ApeNft), apeIds[i]);\n\n            stakerApeLoot[_msgSender()][apeIds[i]] = lootIds[i];\n        }\n\n        accumulate(_msgSender());\n        user.currentYield = newYield;\n\n        emit AddLootToStakedApes(_msgSender(), apeIds.length);\n    }\n\n    function removeLootFromStakedApes(\n        uint256[] memory apeIds\n    ) public nonReentrant {\n        Staker storage user = _stakers[_msgSender()];\n        uint256 newYield = user.currentYield;\n\n        for (uint256 i; i < apeIds.length; i++) {\n            require(\n                _ownerOfToken[address(ApeNft)][apeIds[i]] == _msgSender(),\n                \"Not the owner of staked Ape\"\n            );\n            uint256 ape_loot = stakerApeLoot[_msgSender()][apeIds[i]];\n            require(\n                ape_loot > 0,\n                \"Selected staked Ape does not have any Loot staked with\"\n            );\n            require(\n                _ownerOfToken[address(LootNft)][ape_loot] == _msgSender(),\n                \"Not the owner of staked Ape\"\n            );\n            IERC721(address(LootNft)).safeTransferFrom(\n                address(this),\n                _msgSender(),\n                ape_loot\n            );\n\n            _ownerOfToken[address(LootNft)][ape_loot] = address(0);\n\n            newYield -= getApeLootTokenYield(apeIds[i], ape_loot);\n            newYield += getTokenYield(address(ApeNft), apeIds[i]);\n\n            stakerApeLoot[_msgSender()][apeIds[i]] = 0;\n        }\n\n        accumulate(_msgSender());\n        user.currentYield = newYield;\n\n        emit RemoveLootFromStakedApes(_msgSender(), apeIds.length);\n    }\n\n    function stakeApesWithLoots(\n        uint256[] memory apeIds,\n        uint256[] memory lootIds\n    ) public nonReentrant {\n        require(!depositPaused, \"Deposit paused\");\n        require(stakingLaunched, \"Staking is not launched yet\");\n        require(apeIds.length == lootIds.length, \"Lists not same length\");\n        require(\n            address(LootNft) != address(0),\n            \"Loot Bags staking is not yet enabled\"\n        );\n\n        Staker storage user = _stakers[_msgSender()];\n        uint256 newYield = user.currentYield;\n\n        for (uint256 i; i < apeIds.length; i++) {\n            require(\n                IERC721(address(ApeNft)).ownerOf(apeIds[i]) == _msgSender(),\n                \"Not the owner of staking Ape\"\n            );\n            if (lootIds[i] > 0) {\n                require(\n                    IERC721(address(LootNft)).ownerOf(lootIds[i]) ==\n                        _msgSender(),\n                    \"Not the owner of staking Loot\"\n                );\n                IERC721(address(LootNft)).safeTransferFrom(\n                    _msgSender(),\n                    address(this),\n                    lootIds[i]\n                );\n                _ownerOfToken[address(LootNft)][lootIds[i]] = _msgSender();\n                stakerApeLoot[_msgSender()][apeIds[i]] = lootIds[i];\n            }\n\n            IERC721(address(ApeNft)).safeTransferFrom(\n                _msgSender(),\n                address(this),\n                apeIds[i]\n            );\n            _ownerOfToken[address(ApeNft)][apeIds[i]] = _msgSender();\n\n            newYield += getApeLootTokenYield(apeIds[i], lootIds[i]);\n            user.stakedAPE.push(apeIds[i]);\n        }\n\n        accumulate(_msgSender());\n        user.currentYield = newYield;\n\n        emit StakeApesWithLoots(_msgSender(), apeIds.length);\n    }\n\n    function unstake721(\n        address contractAddress,\n        uint256[] memory tokenIds\n    ) public nonReentrant {\n        require(\n            (contractAddress != address(0) &&\n                contractAddress == address(ApeNft)) ||\n                contractAddress == address(TreasuryNft) ||\n                contractAddress == address(BreedingNft),\n            \"Unknown contract or staking is not yet enabled for this NFT\"\n        );\n        ContractTypes contractType = _contractTypes[contractAddress];\n        Staker storage user = _stakers[_msgSender()];\n        uint256 newYield = user.currentYield;\n\n        for (uint256 i; i < tokenIds.length; i++) {\n            require(\n                IERC721(contractAddress).ownerOf(tokenIds[i]) == address(this),\n                \"Not the owner\"\n            );\n\n            _ownerOfToken[contractAddress][tokenIds[i]] = address(0);\n\n            if (user.currentYield != 0) {\n                if (contractType == ContractTypes.APE) {\n                    uint256 ape_loot = stakerApeLoot[_msgSender()][tokenIds[i]];\n                    uint256 tokenYield = getApeLootTokenYield(\n                        tokenIds[i],\n                        ape_loot\n                    );\n                    newYield -= tokenYield;\n                    if (ape_loot > 0) {\n                        IERC721(address(LootNft)).safeTransferFrom(\n                            address(this),\n                            _msgSender(),\n                            ape_loot\n                        );\n                        _ownerOfToken[address(LootNft)][ape_loot] = address(0);\n                    }\n                } else {\n                    uint256 tokenYield = getTokenYield(\n                        contractAddress,\n                        tokenIds[i]\n                    );\n                    newYield -= tokenYield;\n                }\n            }\n\n            if (contractType == ContractTypes.APE) {\n                user.stakedAPE = _prepareForDeletion(\n                    user.stakedAPE,\n                    tokenIds[i]\n                );\n                user.stakedAPE.pop();\n                stakerApeLoot[_msgSender()][tokenIds[i]] = 0;\n            }\n            if (contractType == ContractTypes.TREASURY) {\n                user.stakedTREASURY = _prepareForDeletion(\n                    user.stakedTREASURY,\n                    tokenIds[i]\n                );\n                user.stakedTREASURY.pop();\n            }\n            if (contractType == ContractTypes.BREEDING) {\n                user.stakedBREEDING = _prepareForDeletion(\n                    user.stakedBREEDING,\n                    tokenIds[i]\n                );\n                user.stakedBREEDING.pop();\n            }\n\n            IERC721(contractAddress).safeTransferFrom(\n                address(this),\n                _msgSender(),\n                tokenIds[i]\n            );\n        }\n\n        if (\n            user.stakedAPE.length == 0 &&\n            user.stakedTREASURY.length == 0 &&\n            user.stakedPET.length == 0 &&\n            user.stakedBREEDING.length == 0\n        ) {\n            newYield = 0;\n        }\n\n        accumulate(_msgSender());\n        user.currentYield = newYield;\n\n        emit Unstake721(_msgSender(), contractAddress, tokenIds.length);\n    }\n\n    function unstake1155(uint256[] memory tokenIds) public nonReentrant {\n        Staker storage user = _stakers[_msgSender()];\n        uint256 newYield = user.currentYield;\n        uint256[] memory transferAmounts = new uint256[](tokenIds.length);\n\n        for (uint256 i; i < tokenIds.length; i++) {\n            require(\n                stakerPetAmounts[_msgSender()][tokenIds[i]] > 0,\n                \"Not the owner of staked Pet\"\n            );\n            transferAmounts[i] = stakerPetAmounts[_msgSender()][tokenIds[i]];\n\n            newYield -= getPetTokenYield(tokenIds[i], transferAmounts[i]);\n\n            user.stakedPET = _prepareForDeletion(user.stakedPET, tokenIds[i]);\n            user.stakedPET.pop();\n            stakerPetAmounts[_msgSender()][tokenIds[i]] = 0;\n        }\n\n        if (\n            user.stakedAPE.length == 0 &&\n            user.stakedTREASURY.length == 0 &&\n            user.stakedPET.length == 0 &&\n            user.stakedBREEDING.length == 0\n        ) {\n            newYield = 0;\n        }\n        PetNft.safeBatchTransferFrom(\n            address(this),\n            _msgSender(),\n            tokenIds,\n            transferAmounts,\n            \"\"\n        );\n\n        accumulate(_msgSender());\n        user.currentYield = newYield;\n\n        emit UnstakePets(_msgSender(), tokenIds.length);\n    }\n\n    function getTokenYield(\n        address contractAddress,\n        uint256 tokenId\n    ) public view returns (uint256) {\n        uint256 tokenYield = _individualRates[contractAddress][tokenId];\n        if (tokenYield == 0) {\n            tokenYield = _baseRates[contractAddress];\n        }\n\n        return tokenYield;\n    }\n\n    function getApeLootTokenYield(\n        uint256 apeId,\n        uint256 lootId\n    ) public view returns (uint256) {\n        uint256 apeYield = _individualRates[address(ApeNft)][apeId];\n        if (apeYield == 0) {\n            apeYield = _baseRates[address(ApeNft)];\n        }\n\n        uint256 lootBoost = _individualRates[address(LootNft)][lootId];\n        if (lootId == 0) {\n            lootBoost = 10;\n        } else {\n            if (lootBoost == 0) {\n                lootBoost = _baseRates[address(LootNft)];\n            }\n        }\n\n        return (apeYield * lootBoost) / 10;\n    }\n\n    function getPetTokenYield(\n        uint256 petId,\n        uint256 amount\n    ) public view returns (uint256) {\n        uint256 petYield = _individualRates[address(PetNft)][petId];\n        if (petYield == 0) {\n            petYield = _baseRates[address(PetNft)];\n        }\n        return petYield * amount;\n    }\n\n    function getStakerYield(address staker) public view returns (uint256) {\n        return _stakers[staker].currentYield;\n    }\n\n    function getStakerNFT(\n        address staker\n    )\n        public\n        view\n        returns (\n            uint256[] memory,\n            uint256[] memory,\n            uint256[] memory,\n            uint256[] memory,\n            uint256[] memory\n        )\n    {\n        uint256[] memory lootIds = new uint256[](\n            _stakers[staker].stakedAPE.length\n        );\n        uint256[] memory petAmounts = new uint256[](8);\n        for (uint256 i; i < _stakers[staker].stakedAPE.length; i++) {\n            lootIds[i] = stakerApeLoot[staker][_stakers[staker].stakedAPE[i]];\n        }\n        for (uint256 i; i < 8; i++) {\n            petAmounts[i] = stakerPetAmounts[staker][i];\n        }\n        return (\n            _stakers[staker].stakedAPE,\n            lootIds,\n            _stakers[staker].stakedTREASURY,\n            petAmounts,\n            _stakers[staker].stakedBREEDING\n        );\n    }\n\n    function _prepareForDeletion(\n        uint256[] memory list,\n        uint256 tokenId\n    ) internal pure returns (uint256[] memory) {\n        uint256 tokenIndex = 0;\n        uint256 lastTokenIndex = list.length - 1;\n        uint256 length = list.length;\n\n        for (uint256 i = 0; i < length; i++) {\n            if (list[i] == tokenId) {\n                tokenIndex = i + 1;\n                break;\n            }\n        }\n        require(tokenIndex != 0, \"Not the owner or duplicate NFT in list\");\n\n        tokenIndex -= 1;\n\n        if (tokenIndex != lastTokenIndex) {\n            list[tokenIndex] = list[lastTokenIndex];\n            list[lastTokenIndex] = tokenId;\n        }\n\n        return list;\n    }\n\n    function getCurrentReward(address staker) public view returns (uint256) {\n        Staker memory user = _stakers[staker];\n        if (user.lastCheckpoint == 0) {\n            return 0;\n        }\n        return\n            ((block.timestamp - user.lastCheckpoint) * user.currentYield) /\n            SECONDS_IN_DAY;\n    }\n\n    function getAccumulatedAmount(\n        address staker\n    ) external view returns (uint256) {\n        return _stakers[staker].accumulatedAmount + getCurrentReward(staker);\n    }\n\n    function accumulate(address staker) internal {\n        _stakers[staker].accumulatedAmount += getCurrentReward(staker);\n        _stakers[staker].lastCheckpoint = block.timestamp;\n    }\n\n    /**\n     * CONTRACTS\n     */\n    function ownerOf(\n        address contractAddress,\n        uint256 tokenId\n    ) public view returns (address) {\n        return _ownerOfToken[contractAddress][tokenId];\n    }\n\n    function balanceOf(address user) public view returns (uint256) {\n        return _stakers[user].stakedAPE.length;\n    }\n\n    function setTREASURYContract(\n        address _treasury,\n        uint256 _baseReward\n    ) public onlyOwner {\n        TreasuryNft = IERC721(_treasury);\n        _contractTypes[_treasury] = ContractTypes.TREASURY;\n        _baseRates[_treasury] = _baseReward;\n    }\n\n    function setPETContract(\n        address _pet,\n        uint256 _baseReward\n    ) public onlyOwner {\n        PetNft = IERC1155(_pet);\n        _contractTypes[_pet] = ContractTypes.PET;\n        _baseRates[_pet] = _baseReward;\n    }\n\n    function setLOOTContract(\n        address _loot,\n        uint256 _baseBoost\n    ) public onlyOwner {\n        LootNft = IERC721(_loot);\n        _contractTypes[_loot] = ContractTypes.LOOT;\n        _baseRates[_loot] = _baseBoost;\n    }\n\n    function setBREEDING(\n        address _breeding,\n        uint256 _baseReward\n    ) public onlyOwner {\n        BreedingNft = IERC721(_breeding);\n        _contractTypes[_breeding] = ContractTypes.BREEDING;\n        _baseRates[_breeding] = _baseReward;\n    }\n\n    /**\n     * ADMIN\n     */\n    function authorise(address toAuth) public onlyOwner {\n        _authorised[toAuth] = true;\n        authorisedLog.push(toAuth);\n    }\n\n    function unauthorise(address addressToUnAuth) public onlyOwner {\n        _authorised[addressToUnAuth] = false;\n    }\n\n    function forceWithdraw721(\n        address tokenAddress,\n        uint256[] memory tokenIds\n    ) public onlyOwner {\n        require(tokenIds.length <= 50, \"50 is max per tx\");\n        pauseDeposit(true);\n        for (uint256 i; i < tokenIds.length; i++) {\n            address receiver = _ownerOfToken[tokenAddress][tokenIds[i]];\n            if (\n                receiver != address(0) &&\n                IERC721(tokenAddress).ownerOf(tokenIds[i]) == address(this)\n            ) {\n                IERC721(tokenAddress).transferFrom(\n                    address(this),\n                    receiver,\n                    tokenIds[i]\n                );\n                emit ForceWithdraw721(receiver, tokenAddress, tokenIds[i]);\n            }\n        }\n    }\n\n    function pauseDeposit(bool _pause) public onlyOwner {\n        depositPaused = _pause;\n    }\n\n    function launchStaking() public onlyOwner {\n        require(!stakingLaunched, \"Staking has been launched already\");\n        stakingLaunched = true;\n    }\n\n    function updateBaseYield(\n        address _contract,\n        uint256 _yield\n    ) public onlyOwner {\n        _baseRates[_contract] = _yield;\n    }\n\n    function setIndividualRates(\n        address contractAddress,\n        uint256[] memory tokenIds,\n        uint256[] memory rates\n    ) public onlyOwner {\n        require(\n            (contractAddress != address(0) &&\n                contractAddress == address(ApeNft)) ||\n                contractAddress == address(LootNft) ||\n                contractAddress == address(TreasuryNft) ||\n                contractAddress == address(PetNft),\n            \"Unknown contract\"\n        );\n        require(tokenIds.length == rates.length, \"Lists not same length\");\n        for (uint256 i; i < tokenIds.length; i++) {\n            _individualRates[contractAddress][tokenIds[i]] = rates[i];\n        }\n    }\n\n    function onERC721Received(\n        address,\n        address,\n        uint256,\n        bytes calldata\n    ) external pure returns (bytes4) {\n        return\n            bytes4(\n                keccak256(\"onERC721Received(address,address,uint256,bytes)\")\n            );\n    }\n\n    function withdrawETH() external onlyOwner {\n        payable(owner()).transfer(address(this).balance);\n    }\n}\n",
  "sourcePath": "C:\\Users\\endre\\dev\\MAL\\season2\\MalContracts\\contracts\\MoonStaking.sol",
  "compiler": {
    "name": "solc",
    "version": "0.8.17+commit.8df45f5f.Emscripten.clang"
  },
  "schemaVersion": "3.4.11",
  "updatedAt": "2022-12-04T13:32:40.397Z",
  "devdoc": {
    "kind": "dev",
    "methods": {
      "owner()": {
        "details": "Returns the address of the current owner."
      },
      "renounceOwnership()": {
        "details": "Leaves the contract without owner. It will not be possible to call `onlyOwner` functions anymore. Can only be called by the current owner. NOTE: Renouncing ownership will leave the contract without an owner, thereby removing any functionality that is only available to the owner."
      },
      "supportsInterface(bytes4)": {
        "details": "See {IERC165-supportsInterface}."
      },
      "transferOwnership(address)": {
        "details": "Transfers ownership of the contract to a new account (`newOwner`). Can only be called by the current owner."
      }
    },
    "version": 1
  },
  "userdoc": {
    "kind": "user",
    "methods": {
      "authorise(address)": {
        "notice": "ADMIN"
      },
      "ownerOf(address,uint256)": {
        "notice": "CONTRACTS"
      }
    },
    "version": 1
  }
}