{
  "contractName": "MoonStakingS2",
  "abi": [
    {
      "inputs": [
        {
          "internalType": "address",
          "name": "_genesis",
          "type": "address"
        },
        {
          "internalType": "address",
          "name": "_mooonstakings1",
          "type": "address"
        }
      ],
      "stateMutability": "nonpayable",
      "type": "constructor"
    },
    {
      "anonymous": false,
      "inputs": [
        {
          "indexed": true,
          "internalType": "address",
          "name": "receiver",
          "type": "address"
        },
        {
          "indexed": true,
          "internalType": "address",
          "name": "tokenAddress",
          "type": "address"
        },
        {
          "indexed": true,
          "internalType": "uint256",
          "name": "tokenId",
          "type": "uint256"
        }
      ],
      "name": "ForceWithdraw721",
      "type": "event"
    },
    {
      "anonymous": false,
      "inputs": [
        {
          "indexed": true,
          "internalType": "address",
          "name": "previousOwner",
          "type": "address"
        },
        {
          "indexed": true,
          "internalType": "address",
          "name": "newOwner",
          "type": "address"
        }
      ],
      "name": "OwnershipTransferred",
      "type": "event"
    },
    {
      "anonymous": false,
      "inputs": [
        {
          "indexed": true,
          "internalType": "address",
          "name": "staker",
          "type": "address"
        },
        {
          "indexed": false,
          "internalType": "address",
          "name": "contractAddress",
          "type": "address"
        },
        {
          "indexed": false,
          "internalType": "uint256",
          "name": "tokensAmount",
          "type": "uint256"
        }
      ],
      "name": "Stake721",
      "type": "event"
    },
    {
      "anonymous": false,
      "inputs": [
        {
          "indexed": true,
          "internalType": "address",
          "name": "staker",
          "type": "address"
        },
        {
          "indexed": false,
          "internalType": "address",
          "name": "contractAddress",
          "type": "address"
        },
        {
          "indexed": false,
          "internalType": "uint256",
          "name": "tokensAmount",
          "type": "uint256"
        }
      ],
      "name": "Unstake721",
      "type": "event"
    },
    {
      "inputs": [],
      "name": "DekuNFT",
      "outputs": [
        {
          "internalType": "contract IERC721",
          "name": "",
          "type": "address"
        }
      ],
      "stateMutability": "view",
      "type": "function"
    },
    {
      "inputs": [],
      "name": "GenesisNFT",
      "outputs": [
        {
          "internalType": "contract IERC721",
          "name": "",
          "type": "address"
        }
      ],
      "stateMutability": "view",
      "type": "function"
    },
    {
      "inputs": [],
      "name": "MoonStakingS1",
      "outputs": [
        {
          "internalType": "contract IMoonStaking",
          "name": "",
          "type": "address"
        }
      ],
      "stateMutability": "view",
      "type": "function"
    },
    {
      "inputs": [],
      "name": "MutantNFT",
      "outputs": [
        {
          "internalType": "contract IERC721",
          "name": "",
          "type": "address"
        }
      ],
      "stateMutability": "view",
      "type": "function"
    },
    {
      "inputs": [],
      "name": "SECONDS_IN_DAY",
      "outputs": [
        {
          "internalType": "uint256",
          "name": "",
          "type": "uint256"
        }
      ],
      "stateMutability": "view",
      "type": "function"
    },
    {
      "inputs": [
        {
          "internalType": "address",
          "name": "",
          "type": "address"
        }
      ],
      "name": "_baseRates",
      "outputs": [
        {
          "internalType": "uint256",
          "name": "",
          "type": "uint256"
        }
      ],
      "stateMutability": "view",
      "type": "function"
    },
    {
      "inputs": [
        {
          "internalType": "uint256",
          "name": "",
          "type": "uint256"
        }
      ],
      "name": "authorisedLog",
      "outputs": [
        {
          "internalType": "address",
          "name": "",
          "type": "address"
        }
      ],
      "stateMutability": "view",
      "type": "function"
    },
    {
      "inputs": [],
      "name": "depositPaused",
      "outputs": [
        {
          "internalType": "bool",
          "name": "",
          "type": "bool"
        }
      ],
      "stateMutability": "view",
      "type": "function"
    },
    {
      "inputs": [
        {
          "internalType": "address",
          "name": "",
          "type": "address"
        },
        {
          "internalType": "address",
          "name": "",
          "type": "address"
        },
        {
          "internalType": "uint256",
          "name": "",
          "type": "uint256"
        },
        {
          "internalType": "bytes",
          "name": "",
          "type": "bytes"
        }
      ],
      "name": "onERC721Received",
      "outputs": [
        {
          "internalType": "bytes4",
          "name": "",
          "type": "bytes4"
        }
      ],
      "stateMutability": "nonpayable",
      "type": "function"
    },
    {
      "inputs": [],
      "name": "owner",
      "outputs": [
        {
          "internalType": "address",
          "name": "",
          "type": "address"
        }
      ],
      "stateMutability": "view",
      "type": "function"
    },
    {
      "inputs": [],
      "name": "renounceOwnership",
      "outputs": [],
      "stateMutability": "nonpayable",
      "type": "function"
    },
    {
      "inputs": [],
      "name": "stakingLaunched",
      "outputs": [
        {
          "internalType": "bool",
          "name": "",
          "type": "bool"
        }
      ],
      "stateMutability": "view",
      "type": "function"
    },
    {
      "inputs": [],
      "name": "startTimestamp",
      "outputs": [
        {
          "internalType": "uint256",
          "name": "",
          "type": "uint256"
        }
      ],
      "stateMutability": "view",
      "type": "function"
    },
    {
      "inputs": [
        {
          "internalType": "address",
          "name": "newOwner",
          "type": "address"
        }
      ],
      "name": "transferOwnership",
      "outputs": [],
      "stateMutability": "nonpayable",
      "type": "function"
    },
    {
      "inputs": [
        {
          "internalType": "address",
          "name": "contractAddress",
          "type": "address"
        },
        {
          "internalType": "uint256[]",
          "name": "tokenIds",
          "type": "uint256[]"
        }
      ],
      "name": "stake721",
      "outputs": [],
      "stateMutability": "nonpayable",
      "type": "function"
    },
    {
      "inputs": [
        {
          "internalType": "address",
          "name": "contractAddress",
          "type": "address"
        },
        {
          "internalType": "uint256[]",
          "name": "tokenIds",
          "type": "uint256[]"
        }
      ],
      "name": "unstake721",
      "outputs": [],
      "stateMutability": "nonpayable",
      "type": "function"
    },
    {
      "inputs": [
        {
          "internalType": "address",
          "name": "contractAddress",
          "type": "address"
        },
        {
          "internalType": "uint256",
          "name": "tokenId",
          "type": "uint256"
        }
      ],
      "name": "getTokenYield",
      "outputs": [
        {
          "internalType": "uint256",
          "name": "",
          "type": "uint256"
        }
      ],
      "stateMutability": "view",
      "type": "function"
    },
    {
      "inputs": [
        {
          "internalType": "uint256",
          "name": "genesisId",
          "type": "uint256"
        }
      ],
      "name": "getGenesisYield",
      "outputs": [
        {
          "internalType": "uint256",
          "name": "",
          "type": "uint256"
        }
      ],
      "stateMutability": "view",
      "type": "function"
    },
    {
      "inputs": [
        {
          "internalType": "address",
          "name": "staker",
          "type": "address"
        }
      ],
      "name": "getStakerYield",
      "outputs": [
        {
          "internalType": "uint256",
          "name": "",
          "type": "uint256"
        }
      ],
      "stateMutability": "view",
      "type": "function"
    },
    {
      "inputs": [
        {
          "internalType": "address",
          "name": "staker",
          "type": "address"
        }
      ],
      "name": "getStakerNFT",
      "outputs": [
        {
          "internalType": "uint256[]",
          "name": "",
          "type": "uint256[]"
        },
        {
          "internalType": "uint256[]",
          "name": "",
          "type": "uint256[]"
        },
        {
          "internalType": "uint256[]",
          "name": "",
          "type": "uint256[]"
        }
      ],
      "stateMutability": "view",
      "type": "function"
    },
    {
      "inputs": [
        {
          "internalType": "address",
          "name": "staker",
          "type": "address"
        }
      ],
      "name": "getCurrentReward",
      "outputs": [
        {
          "internalType": "uint256",
          "name": "",
          "type": "uint256"
        }
      ],
      "stateMutability": "view",
      "type": "function"
    },
    {
      "inputs": [
        {
          "internalType": "address",
          "name": "staker",
          "type": "address"
        }
      ],
      "name": "getAccumulatedAmount",
      "outputs": [
        {
          "internalType": "uint256",
          "name": "",
          "type": "uint256"
        }
      ],
      "stateMutability": "view",
      "type": "function"
    },
    {
      "inputs": [
        {
          "internalType": "address",
          "name": "contractAddress",
          "type": "address"
        },
        {
          "internalType": "uint256",
          "name": "tokenId",
          "type": "uint256"
        }
      ],
      "name": "ownerOf",
      "outputs": [
        {
          "internalType": "address",
          "name": "",
          "type": "address"
        }
      ],
      "stateMutability": "view",
      "type": "function"
    },
    {
      "inputs": [
        {
          "internalType": "address",
          "name": "user",
          "type": "address"
        }
      ],
      "name": "balanceOf",
      "outputs": [
        {
          "internalType": "uint256",
          "name": "",
          "type": "uint256"
        }
      ],
      "stateMutability": "view",
      "type": "function"
    },
    {
      "inputs": [
        {
          "internalType": "address",
          "name": "_deku",
          "type": "address"
        },
        {
          "internalType": "uint256",
          "name": "_baseReward",
          "type": "uint256"
        }
      ],
      "name": "setDEKUContract",
      "outputs": [],
      "stateMutability": "nonpayable",
      "type": "function"
    },
    {
      "inputs": [
        {
          "internalType": "address",
          "name": "_mutant",
          "type": "address"
        },
        {
          "internalType": "uint256",
          "name": "_baseReward",
          "type": "uint256"
        }
      ],
      "name": "setMUTANTContract",
      "outputs": [],
      "stateMutability": "nonpayable",
      "type": "function"
    },
    {
      "inputs": [
        {
          "internalType": "address",
          "name": "toAuth",
          "type": "address"
        }
      ],
      "name": "authorise",
      "outputs": [],
      "stateMutability": "nonpayable",
      "type": "function"
    },
    {
      "inputs": [
        {
          "internalType": "address",
          "name": "addressToUnAuth",
          "type": "address"
        }
      ],
      "name": "unauthorise",
      "outputs": [],
      "stateMutability": "nonpayable",
      "type": "function"
    },
    {
      "inputs": [
        {
          "internalType": "address",
          "name": "tokenAddress",
          "type": "address"
        },
        {
          "internalType": "uint256[]",
          "name": "tokenIds",
          "type": "uint256[]"
        }
      ],
      "name": "forceWithdraw721",
      "outputs": [],
      "stateMutability": "nonpayable",
      "type": "function"
    },
    {
      "inputs": [
        {
          "internalType": "bool",
          "name": "_pause",
          "type": "bool"
        }
      ],
      "name": "pauseDeposit",
      "outputs": [],
      "stateMutability": "nonpayable",
      "type": "function"
    },
    {
      "inputs": [],
      "name": "launchStaking",
      "outputs": [],
      "stateMutability": "nonpayable",
      "type": "function"
    },
    {
      "inputs": [
        {
          "internalType": "address",
          "name": "_contract",
          "type": "address"
        },
        {
          "internalType": "uint256",
          "name": "_yield",
          "type": "uint256"
        }
      ],
      "name": "updateBaseYield",
      "outputs": [],
      "stateMutability": "nonpayable",
      "type": "function"
    },
    {
      "inputs": [
        {
          "internalType": "address",
          "name": "contractAddress",
          "type": "address"
        },
        {
          "internalType": "uint256[]",
          "name": "tokenIds",
          "type": "uint256[]"
        },
        {
          "internalType": "uint256[]",
          "name": "rates",
          "type": "uint256[]"
        }
      ],
      "name": "setIndividualRates",
      "outputs": [],
      "stateMutability": "nonpayable",
      "type": "function"
    },
    {
      "inputs": [],
      "name": "withdrawETH",
      "outputs": [],
      "stateMutability": "nonpayable",
      "type": "function"
    }
  ],
  "bytecode": "0x60806040523480156200001157600080fd5b50604051620040bf380380620040bf83398181016040528101906200003791906200035d565b620000576200004b6200022760201b60201c565b6200022f60201b60201c565b6001808190555081600260006101000a81548173ffffffffffffffffffffffffffffffffffffffff021916908373ffffffffffffffffffffffffffffffffffffffff1602179055506000600a60008473ffffffffffffffffffffffffffffffffffffffff1673ffffffffffffffffffffffffffffffffffffffff16815260200190815260200160002060006101000a81548160ff02191690836002811115620001055762000104620003a4565b5b0217905550680d8d726b7177a80000600b60008473ffffffffffffffffffffffffffffffffffffffff1673ffffffffffffffffffffffffffffffffffffffff1681526020019081526020016000208190555080600560006101000a81548173ffffffffffffffffffffffffffffffffffffffff021916908373ffffffffffffffffffffffffffffffffffffffff16021790555060fa60096000609681526020019081526020016000208190555061012c6009600060b481526020019081526020016000208190555061015e6009600060d28152602001908152602001600020819055506101a96009600060f08152602001908152602001600020819055506101f46009600061012c8152602001908152602001600020819055505050620003d3565b600033905090565b60008060009054906101000a900473ffffffffffffffffffffffffffffffffffffffff169050816000806101000a81548173ffffffffffffffffffffffffffffffffffffffff021916908373ffffffffffffffffffffffffffffffffffffffff1602179055508173ffffffffffffffffffffffffffffffffffffffff168173ffffffffffffffffffffffffffffffffffffffff167f8be0079c531659141344cd1fd0a4f28419497f9722a3daafe3b4186f6b6457e060405160405180910390a35050565b600080fd5b600073ffffffffffffffffffffffffffffffffffffffff82169050919050565b60006200032582620002f8565b9050919050565b620003378162000318565b81146200034357600080fd5b50565b60008151905062000357816200032c565b92915050565b60008060408385031215620003775762000376620002f3565b5b6000620003878582860162000346565b92505060206200039a8582860162000346565b9150509250929050565b7f4e487b7100000000000000000000000000000000000000000000000000000000600052602160045260246000fd5b613cdc80620003e36000396000f3fe608060405234801561001057600080fd5b50600436106102065760003560e01c806370a082311161011a578063c68e5161116100ad578063e086e5ec1161007c578063e086e5ec146105e9578063e1af5698146105f3578063e6fd48bc14610611578063eb4426b61461062f578063f2fde38b1461066157610206565b8063c68e516114610551578063c82bc61d1461056d578063cd79b4541461059d578063da9b5fc6146105b957610206565b80638da5cb5b116100e95780638da5cb5b146104ed578063a30a24741461050b578063a904012714610515578063c21af1f81461053357610206565b806370a082311461047b578063715018a6146104ab5780637f4a67bf146104b557806380833d78146104d157610206565b8063266690c91161019d5780634d307e3f1161016c5780634d307e3f146103c557806361499ab9146103f557806361a52a361461042557806366e6c8af14610443578063708c94c71461045f57610206565b8063266690c91461033f5780633588415b1461035d578063415855d6146103795780634bee21d41461039557610206565b8063150b7a02116101d9578063150b7a02146102935780631f29d2dc146102c357806323101e27146102f357806324fc3efc1461032357610206565b8063011c18471461020b57806302befd2414610229578063041296671461024757806309cd99d714610277575b600080fd5b61021361067d565b6040516102209190612c5b565b60405180910390f35b6102316106a3565b60405161023e9190612c91565b60405180910390f35b610261600480360381019061025c9190612cfe565b6106b6565b60405161026e9190612d44565b60405180910390f35b610291600480360381019061028c9190612ee4565b610715565b005b6102ad60048036038101906102a89190613024565b610988565b6040516102ba91906130e2565b60405180910390f35b6102dd60048036038101906102d891906130fd565b61099c565b6040516102ea919061314c565b60405180910390f35b61030d60048036038101906103089190612cfe565b610a17565b60405161031a9190612d44565b60405180910390f35b61033d600480360381019061033891906130fd565b610a2f565b005b610347610b28565b6040516103549190612c5b565b60405180910390f35b610377600480360381019061037291906130fd565b610b4e565b005b610393600480360381019061038e9190613193565b610c47565b005b6103af60048036038101906103aa9190612cfe565b610c6c565b6040516103bc9190612d44565b60405180910390f35b6103df60048036038101906103da9190612cfe565b610c73565b6040516103ec9190612d44565b60405180910390f35b61040f600480360381019061040a91906130fd565b610e35565b60405161041c9190612d44565b60405180910390f35b61042d610f2a565b60405161043a9190612d44565b60405180910390f35b61045d60048036038101906104589190612cfe565b610f31565b005b610479600480360381019061047491906131c0565b610ff7565b005b61049560048036038101906104909190612cfe565b611792565b6040516104a29190612d44565b60405180910390f35b6104b3611888565b005b6104cf60048036038101906104ca91906131c0565b61189c565b005b6104eb60048036038101906104e69190612cfe565b611f8a565b005b6104f5611fed565b604051610502919061314c565b60405180910390f35b610513612016565b005b61051d612092565b60405161052a919061323d565b60405180910390f35b61053b6120b8565b6040516105489190612c5b565b60405180910390f35b61056b600480360381019061056691906130fd565b6120de565b005b61058760048036038101906105829190613258565b61212e565b604051610594919061314c565b60405180910390f35b6105b760048036038101906105b291906131c0565b61216d565b005b6105d360048036038101906105ce9190613258565b612477565b6040516105e09190612d44565b60405180910390f35b6105f1612558565b005b6105fb6125b0565b6040516106089190612c91565b60405180910390f35b6106196125c3565b6040516106269190612d44565b60405180910390f35b61064960048036038101906106449190612cfe565b6125c9565b60405161065893929190613343565b60405180910390f35b61067b60048036038101906106769190612cfe565b612797565b005b600360009054906101000a900473ffffffffffffffffffffffffffffffffffffffff1681565b600760019054906101000a900460ff1681565b60006106c182610c73565b600860008473ffffffffffffffffffffffffffffffffffffffff1673ffffffffffffffffffffffffffffffffffffffff1681526020019081526020016000206000015461070e91906133be565b9050919050565b61071d61281a565b600073ffffffffffffffffffffffffffffffffffffffff168373ffffffffffffffffffffffffffffffffffffffff16141580156107a75750600260009054906101000a900473ffffffffffffffffffffffffffffffffffffffff1673ffffffffffffffffffffffffffffffffffffffff168373ffffffffffffffffffffffffffffffffffffffff16145b806107ff5750600360009054906101000a900473ffffffffffffffffffffffffffffffffffffffff1673ffffffffffffffffffffffffffffffffffffffff168373ffffffffffffffffffffffffffffffffffffffff16145b806108575750600460009054906101000a900473ffffffffffffffffffffffffffffffffffffffff1673ffffffffffffffffffffffffffffffffffffffff168373ffffffffffffffffffffffffffffffffffffffff16145b610896576040517f08c379a000000000000000000000000000000000000000000000000000000000815260040161088d9061344f565b60405180910390fd5b80518251146108da576040517f08c379a00000000000000000000000000000000000000000000000000000000081526004016108d1906134bb565b60405180910390fd5b60005b8251811015610982578181815181106108f9576108f86134db565b5b6020026020010151600c60008673ffffffffffffffffffffffffffffffffffffffff1673ffffffffffffffffffffffffffffffffffffffff1681526020019081526020016000206000858481518110610955576109546134db565b5b6020026020010151815260200190815260200160002081905550808061097a9061350a565b9150506108dd565b50505050565b600063150b7a0260e01b9050949350505050565b6000600d60008473ffffffffffffffffffffffffffffffffffffffff1673ffffffffffffffffffffffffffffffffffffffff168152602001908152602001600020600083815260200190815260200160002060009054906101000a900473ffffffffffffffffffffffffffffffffffffffff16905092915050565b600b6020528060005260406000206000915090505481565b610a3761281a565b81600360006101000a81548173ffffffffffffffffffffffffffffffffffffffff021916908373ffffffffffffffffffffffffffffffffffffffff1602179055506001600a60008473ffffffffffffffffffffffffffffffffffffffff1673ffffffffffffffffffffffffffffffffffffffff16815260200190815260200160002060006101000a81548160ff02191690836002811115610adb57610ada613552565b5b021790555080600b60008473ffffffffffffffffffffffffffffffffffffffff1673ffffffffffffffffffffffffffffffffffffffff168152602001908152602001600020819055505050565b600260009054906101000a900473ffffffffffffffffffffffffffffffffffffffff1681565b610b5661281a565b81600460006101000a81548173ffffffffffffffffffffffffffffffffffffffff021916908373ffffffffffffffffffffffffffffffffffffffff1602179055506002600a60008473ffffffffffffffffffffffffffffffffffffffff1673ffffffffffffffffffffffffffffffffffffffff16815260200190815260200160002060006101000a81548160ff02191690836002811115610bfa57610bf9613552565b5b021790555080600b60008473ffffffffffffffffffffffffffffffffffffffff1673ffffffffffffffffffffffffffffffffffffffff168152602001908152602001600020819055505050565b610c4f61281a565b80600760016101000a81548160ff02191690831515021790555050565b6000919050565b600080600860008473ffffffffffffffffffffffffffffffffffffffff1673ffffffffffffffffffffffffffffffffffffffff1681526020019081526020016000206040518060a0016040529081600082015481526020016001820154815260200160028201805480602002602001604051908101604052809291908181526020018280548015610d2357602002820191906000526020600020905b815481526020019060010190808311610d0f575b5050505050815260200160038201805480602002602001604051908101604052809291908181526020018280548015610d7b57602002820191906000526020600020905b815481526020019060010190808311610d67575b5050505050815260200160048201805480602002602001604051908101604052809291908181526020018280548015610dd357602002820191906000526020600020905b815481526020019060010190808311610dbf575b50505050508152505090506000610de984610c6c565b90506000826020015103610e0257600092505050610e30565b6201518081836020015142610e179190613581565b610e2191906135b5565b610e2b9190613626565b925050505b919050565b600080600b60008573ffffffffffffffffffffffffffffffffffffffff1673ffffffffffffffffffffffffffffffffffffffff16815260200190815260200160002054600c60008673ffffffffffffffffffffffffffffffffffffffff1673ffffffffffffffffffffffffffffffffffffffff168152602001908152602001600020600085815260200190815260200160002054610ed391906135b5565b905060008103610f2057600b60008573ffffffffffffffffffffffffffffffffffffffff1673ffffffffffffffffffffffffffffffffffffffff1681526020019081526020016000205490505b8091505092915050565b6201518081565b610f3961281a565b6001600e60008373ffffffffffffffffffffffffffffffffffffffff1673ffffffffffffffffffffffffffffffffffffffff16815260200190815260200160002060006101000a81548160ff021916908315150217905550600f819080600181540180825580915050600190039060005260206000200160009091909190916101000a81548173ffffffffffffffffffffffffffffffffffffffff021916908373ffffffffffffffffffffffffffffffffffffffff16021790555050565b610fff612898565b600073ffffffffffffffffffffffffffffffffffffffff168273ffffffffffffffffffffffffffffffffffffffff16141580156110895750600260009054906101000a900473ffffffffffffffffffffffffffffffffffffffff1673ffffffffffffffffffffffffffffffffffffffff168273ffffffffffffffffffffffffffffffffffffffff16145b806110e15750600360009054906101000a900473ffffffffffffffffffffffffffffffffffffffff1673ffffffffffffffffffffffffffffffffffffffff168273ffffffffffffffffffffffffffffffffffffffff16145b806111395750600460009054906101000a900473ffffffffffffffffffffffffffffffffffffffff1673ffffffffffffffffffffffffffffffffffffffff168273ffffffffffffffffffffffffffffffffffffffff16145b611178576040517f08c379a000000000000000000000000000000000000000000000000000000000815260040161116f906136c9565b60405180910390fd5b6000600a60008473ffffffffffffffffffffffffffffffffffffffff1673ffffffffffffffffffffffffffffffffffffffff16815260200190815260200160002060009054906101000a900460ff1690506000600860006111d76128e7565b73ffffffffffffffffffffffffffffffffffffffff1673ffffffffffffffffffffffffffffffffffffffff168152602001908152602001600020905060005b835181101561171b573073ffffffffffffffffffffffffffffffffffffffff168573ffffffffffffffffffffffffffffffffffffffff16636352211e868481518110611265576112646134db565b5b60200260200101516040518263ffffffff1660e01b81526004016112899190612d44565b602060405180830381865afa1580156112a6573d6000803e3d6000fd5b505050506040513d601f19601f820116820180604052508101906112ca91906136fe565b73ffffffffffffffffffffffffffffffffffffffff1614611320576040517f08c379a000000000000000000000000000000000000000000000000000000000815260040161131790613777565b60405180910390fd5b6000600d60008773ffffffffffffffffffffffffffffffffffffffff1673ffffffffffffffffffffffffffffffffffffffff1681526020019081526020016000206000868481518110611376576113756134db565b5b6020026020010151815260200190815260200160002060006101000a81548173ffffffffffffffffffffffffffffffffffffffff021916908373ffffffffffffffffffffffffffffffffffffffff160217905550600060028111156113de576113dd613552565b5b8360028111156113f1576113f0613552565b5b036114af5761146c8260020180548060200260200160405190810160405280929190818152602001828054801561144757602002820191906000526020600020905b815481526020019060010190808311611433575b505050505085838151811061145f5761145e6134db565b5b60200260200101516128ef565b826002019080519060200190611483929190612b72565b508160020180548061149857611497613797565b5b600190038181906000526020600020016000905590555b600160028111156114c3576114c2613552565b5b8360028111156114d6576114d5613552565b5b03611594576115518260030180548060200260200160405190810160405280929190818152602001828054801561152c57602002820191906000526020600020905b815481526020019060010190808311611518575b5050505050858381518110611544576115436134db565b5b60200260200101516128ef565b826003019080519060200190611568929190612b72565b508160030180548061157d5761157c613797565b5b600190038181906000526020600020016000905590555b6002808111156115a7576115a6613552565b5b8360028111156115ba576115b9613552565b5b03611678576116358260040180548060200260200160405190810160405280929190818152602001828054801561161057602002820191906000526020600020905b8154815260200190600101908083116115fc575b5050505050858381518110611628576116276134db565b5b60200260200101516128ef565b82600401908051906020019061164c929190612b72565b508160040180548061166157611660613797565b5b600190038181906000526020600020016000905590555b8473ffffffffffffffffffffffffffffffffffffffff166342842e0e3061169d6128e7565b8785815181106116b0576116af6134db565b5b60200260200101516040518463ffffffff1660e01b81526004016116d6939291906137c6565b600060405180830381600087803b1580156116f057600080fd5b505af1158015611704573d6000803e3d6000fd5b5050505080806117139061350a565b915050611216565b5061172c6117276128e7565b6129fa565b6117346128e7565b73ffffffffffffffffffffffffffffffffffffffff167f4ba5edd9b1f5ba1a48c7179f325e7dcbd7f63c4eb006f8ebf5e46cbe6fbfc36085855160405161177c9291906137fd565b60405180910390a2505061178e612aa5565b5050565b600080600560009054906101000a900473ffffffffffffffffffffffffffffffffffffffff1673ffffffffffffffffffffffffffffffffffffffff166370a082316117db6128e7565b6040518263ffffffff1660e01b81526004016117f7919061314c565b602060405180830381865afa158015611814573d6000803e3d6000fd5b505050506040513d601f19601f82011682018060405250810190611838919061383b565b9050600860008473ffffffffffffffffffffffffffffffffffffffff1673ffffffffffffffffffffffffffffffffffffffff16815260200190815260200160002060020180549050915050919050565b61189061281a565b61189a6000612aae565b565b6118a4612898565b600760019054906101000a900460ff16156118f4576040517f08c379a00000000000000000000000000000000000000000000000000000000081526004016118eb906138b4565b60405180910390fd5b600760009054906101000a900460ff16611943576040517f08c379a000000000000000000000000000000000000000000000000000000000815260040161193a90613920565b60405180910390fd5b600073ffffffffffffffffffffffffffffffffffffffff168273ffffffffffffffffffffffffffffffffffffffff16141580156119cd5750600260009054906101000a900473ffffffffffffffffffffffffffffffffffffffff1673ffffffffffffffffffffffffffffffffffffffff168273ffffffffffffffffffffffffffffffffffffffff16145b80611a255750600360009054906101000a900473ffffffffffffffffffffffffffffffffffffffff1673ffffffffffffffffffffffffffffffffffffffff168273ffffffffffffffffffffffffffffffffffffffff16145b80611a7d5750600460009054906101000a900473ffffffffffffffffffffffffffffffffffffffff1673ffffffffffffffffffffffffffffffffffffffff168273ffffffffffffffffffffffffffffffffffffffff16145b611abc576040517f08c379a0000000000000000000000000000000000000000000000000000000008152600401611ab3906136c9565b60405180910390fd5b6000600a60008473ffffffffffffffffffffffffffffffffffffffff1673ffffffffffffffffffffffffffffffffffffffff16815260200190815260200160002060009054906101000a900460ff169050600060086000611b1b6128e7565b73ffffffffffffffffffffffffffffffffffffffff1673ffffffffffffffffffffffffffffffffffffffff168152602001908152602001600020905060005b8351811015611f1357611b6b6128e7565b73ffffffffffffffffffffffffffffffffffffffff168573ffffffffffffffffffffffffffffffffffffffff16636352211e868481518110611bb057611baf6134db565b5b60200260200101516040518263ffffffff1660e01b8152600401611bd49190612d44565b602060405180830381865afa158015611bf1573d6000803e3d6000fd5b505050506040513d601f19601f82011682018060405250810190611c1591906136fe565b73ffffffffffffffffffffffffffffffffffffffff1614611c6b576040517f08c379a0000000000000000000000000000000000000000000000000000000008152600401611c629061398c565b60405180910390fd5b8473ffffffffffffffffffffffffffffffffffffffff166342842e0e611c8f6128e7565b30878581518110611ca357611ca26134db565b5b60200260200101516040518463ffffffff1660e01b8152600401611cc9939291906137c6565b600060405180830381600087803b158015611ce357600080fd5b505af1158015611cf7573d6000803e3d6000fd5b50505050611d036128e7565b600d60008773ffffffffffffffffffffffffffffffffffffffff1673ffffffffffffffffffffffffffffffffffffffff1681526020019081526020016000206000868481518110611d5757611d566134db565b5b6020026020010151815260200190815260200160002060006101000a81548173ffffffffffffffffffffffffffffffffffffffff021916908373ffffffffffffffffffffffffffffffffffffffff16021790555060006002811115611dbf57611dbe613552565b5b836002811115611dd257611dd1613552565b5b03611e1d5781600201848281518110611dee57611ded6134db565b5b602002602001015190806001815401808255809150506001900390600052602060002001600090919091909150555b60016002811115611e3157611e30613552565b5b836002811115611e4457611e43613552565b5b03611e8f5781600301848281518110611e6057611e5f6134db565b5b602002602001015190806001815401808255809150506001900390600052602060002001600090919091909150555b600280811115611ea257611ea1613552565b5b836002811115611eb557611eb4613552565b5b03611f005781600401848281518110611ed157611ed06134db565b5b602002602001015190806001815401808255809150506001900390600052602060002001600090919091909150555b8080611f0b9061350a565b915050611b5a565b50611f24611f1f6128e7565b6129fa565b611f2c6128e7565b73ffffffffffffffffffffffffffffffffffffffff167fe7de321cbdf2d1b2d2e5e22013ef745d72ebdc806ec3b664584b1cc8dc9abe81858551604051611f749291906137fd565b60405180910390a25050611f86612aa5565b5050565b611f9261281a565b6000600e60008373ffffffffffffffffffffffffffffffffffffffff1673ffffffffffffffffffffffffffffffffffffffff16815260200190815260200160002060006101000a81548160ff02191690831515021790555050565b60008060009054906101000a900473ffffffffffffffffffffffffffffffffffffffff16905090565b61201e61281a565b600760009054906101000a900460ff161561206e576040517f08c379a000000000000000000000000000000000000000000000000000000000815260040161206590613a1e565b60405180910390fd5b6001600760006101000a81548160ff02191690831515021790555042600681905550565b600560009054906101000a900473ffffffffffffffffffffffffffffffffffffffff1681565b600460009054906101000a900473ffffffffffffffffffffffffffffffffffffffff1681565b6120e661281a565b80600b60008473ffffffffffffffffffffffffffffffffffffffff1673ffffffffffffffffffffffffffffffffffffffff168152602001908152602001600020819055505050565b600f818154811061213e57600080fd5b906000526020600020016000915054906101000a900473ffffffffffffffffffffffffffffffffffffffff1681565b61217561281a565b6032815111156121ba576040517f08c379a00000000000000000000000000000000000000000000000000000000081526004016121b190613a8a565b60405180910390fd5b6121c46001610c47565b60005b8151811015612472576000600d60008573ffffffffffffffffffffffffffffffffffffffff1673ffffffffffffffffffffffffffffffffffffffff1681526020019081526020016000206000848481518110612226576122256134db565b5b6020026020010151815260200190815260200160002060009054906101000a900473ffffffffffffffffffffffffffffffffffffffff169050600073ffffffffffffffffffffffffffffffffffffffff168173ffffffffffffffffffffffffffffffffffffffff161415801561235a57503073ffffffffffffffffffffffffffffffffffffffff168473ffffffffffffffffffffffffffffffffffffffff16636352211e8585815181106122dd576122dc6134db565b5b60200260200101516040518263ffffffff1660e01b81526004016123019190612d44565b602060405180830381865afa15801561231e573d6000803e3d6000fd5b505050506040513d601f19601f8201168201806040525081019061234291906136fe565b73ffffffffffffffffffffffffffffffffffffffff16145b1561245e578373ffffffffffffffffffffffffffffffffffffffff166323b872dd30838686815181106123905761238f6134db565b5b60200260200101516040518463ffffffff1660e01b81526004016123b6939291906137c6565b600060405180830381600087803b1580156123d057600080fd5b505af11580156123e4573d6000803e3d6000fd5b505050508282815181106123fb576123fa6134db565b5b60200260200101518473ffffffffffffffffffffffffffffffffffffffff168273ffffffffffffffffffffffffffffffffffffffff167f639cf5a59a0ba34d5cf248cfcc10a75f2fdbc9f613ff75acffb80269dbed612860405160405180910390a45b50808061246a9061350a565b9150506121c7565b505050565b600080600560009054906101000a900473ffffffffffffffffffffffffffffffffffffffff1673ffffffffffffffffffffffffffffffffffffffff166361499ab9600260009054906101000a900473ffffffffffffffffffffffffffffffffffffffff16856040518363ffffffff1660e01b81526004016124f99291906137fd565b602060405180830381865afa158015612516573d6000803e3d6000fd5b505050506040513d601f19601f8201168201806040525081019061253a919061383b565b90506009600082815260200190815260200160002054915050919050565b61256061281a565b612568611fed565b73ffffffffffffffffffffffffffffffffffffffff166108fc479081150290604051600060405180830381858888f193505050501580156125ad573d6000803e3d6000fd5b50565b600760009054906101000a900460ff1681565b60065481565b6060806060600860008573ffffffffffffffffffffffffffffffffffffffff1673ffffffffffffffffffffffffffffffffffffffff168152602001908152602001600020600201600860008673ffffffffffffffffffffffffffffffffffffffff1673ffffffffffffffffffffffffffffffffffffffff168152602001908152602001600020600301600860008773ffffffffffffffffffffffffffffffffffffffff1673ffffffffffffffffffffffffffffffffffffffff168152602001908152602001600020600401828054806020026020016040519081016040528092919081815260200182805480156126df57602002820191906000526020600020905b8154815260200190600101908083116126cb575b505050505092508180548060200260200160405190810160405280929190818152602001828054801561273157602002820191906000526020600020905b81548152602001906001019080831161271d575b505050505091508080548060200260200160405190810160405280929190818152602001828054801561278357602002820191906000526020600020905b81548152602001906001019080831161276f575b505050505090509250925092509193909250565b61279f61281a565b600073ffffffffffffffffffffffffffffffffffffffff168173ffffffffffffffffffffffffffffffffffffffff160361280e576040517f08c379a000000000000000000000000000000000000000000000000000000000815260040161280590613b1c565b60405180910390fd5b61281781612aae565b50565b6128226128e7565b73ffffffffffffffffffffffffffffffffffffffff16612840611fed565b73ffffffffffffffffffffffffffffffffffffffff1614612896576040517f08c379a000000000000000000000000000000000000000000000000000000000815260040161288d90613b88565b60405180910390fd5b565b6002600154036128dd576040517f08c379a00000000000000000000000000000000000000000000000000000000081526004016128d490613bf4565b60405180910390fd5b6002600181905550565b600033905090565b60606000805b84518110156129af5783858281518110612912576129116134db565b5b60200260200101510361299c57846001865161292e9190613581565b8151811061293f5761293e6134db565b5b602002602001015185828151811061295a576129596134db565b5b6020026020010181815250508385600187516129769190613581565b81518110612987576129866134db565b5b602002602001018181525050600191506129af565b80806129a79061350a565b9150506128f5565b50806129f0576040517f08c379a00000000000000000000000000000000000000000000000000000000081526004016129e790613c86565b60405180910390fd5b8391505092915050565b612a0381610c73565b600860008373ffffffffffffffffffffffffffffffffffffffff1673ffffffffffffffffffffffffffffffffffffffff1681526020019081526020016000206000016000828254612a5491906133be565b9250508190555042600860008373ffffffffffffffffffffffffffffffffffffffff1673ffffffffffffffffffffffffffffffffffffffff1681526020019081526020016000206001018190555050565b60018081905550565b60008060009054906101000a900473ffffffffffffffffffffffffffffffffffffffff169050816000806101000a81548173ffffffffffffffffffffffffffffffffffffffff021916908373ffffffffffffffffffffffffffffffffffffffff1602179055508173ffffffffffffffffffffffffffffffffffffffff168173ffffffffffffffffffffffffffffffffffffffff167f8be0079c531659141344cd1fd0a4f28419497f9722a3daafe3b4186f6b6457e060405160405180910390a35050565b828054828255906000526020600020908101928215612bae579160200282015b82811115612bad578251825591602001919060010190612b92565b5b509050612bbb9190612bbf565b5090565b5b80821115612bd8576000816000905550600101612bc0565b5090565b600073ffffffffffffffffffffffffffffffffffffffff82169050919050565b6000819050919050565b6000612c21612c1c612c1784612bdc565b612bfc565b612bdc565b9050919050565b6000612c3382612c06565b9050919050565b6000612c4582612c28565b9050919050565b612c5581612c3a565b82525050565b6000602082019050612c706000830184612c4c565b92915050565b60008115159050919050565b612c8b81612c76565b82525050565b6000602082019050612ca66000830184612c82565b92915050565b6000604051905090565b600080fd5b600080fd5b6000612ccb82612bdc565b9050919050565b612cdb81612cc0565b8114612ce657600080fd5b50565b600081359050612cf881612cd2565b92915050565b600060208284031215612d1457612d13612cb6565b5b6000612d2284828501612ce9565b91505092915050565b6000819050919050565b612d3e81612d2b565b82525050565b6000602082019050612d596000830184612d35565b92915050565b600080fd5b6000601f19601f8301169050919050565b7f4e487b7100000000000000000000000000000000000000000000000000000000600052604160045260246000fd5b612dad82612d64565b810181811067ffffffffffffffff82111715612dcc57612dcb612d75565b5b80604052505050565b6000612ddf612cac565b9050612deb8282612da4565b919050565b600067ffffffffffffffff821115612e0b57612e0a612d75565b5b602082029050602081019050919050565b600080fd5b612e2a81612d2b565b8114612e3557600080fd5b50565b600081359050612e4781612e21565b92915050565b6000612e60612e5b84612df0565b612dd5565b90508083825260208201905060208402830185811115612e8357612e82612e1c565b5b835b81811015612eac5780612e988882612e38565b845260208401935050602081019050612e85565b5050509392505050565b600082601f830112612ecb57612eca612d5f565b5b8135612edb848260208601612e4d565b91505092915050565b600080600060608486031215612efd57612efc612cb6565b5b6000612f0b86828701612ce9565b935050602084013567ffffffffffffffff811115612f2c57612f2b612cbb565b5b612f3886828701612eb6565b925050604084013567ffffffffffffffff811115612f5957612f58612cbb565b5b612f6586828701612eb6565b9150509250925092565b600080fd5b600067ffffffffffffffff821115612f8f57612f8e612d75565b5b612f9882612d64565b9050602081019050919050565b82818337600083830152505050565b6000612fc7612fc284612f74565b612dd5565b905082815260208101848484011115612fe357612fe2612f6f565b5b612fee848285612fa5565b509392505050565b600082601f83011261300b5761300a612d5f565b5b813561301b848260208601612fb4565b91505092915050565b6000806000806080858703121561303e5761303d612cb6565b5b600061304c87828801612ce9565b945050602061305d87828801612ce9565b935050604061306e87828801612e38565b925050606085013567ffffffffffffffff81111561308f5761308e612cbb565b5b61309b87828801612ff6565b91505092959194509250565b60007fffffffff0000000000000000000000000000000000000000000000000000000082169050919050565b6130dc816130a7565b82525050565b60006020820190506130f760008301846130d3565b92915050565b6000806040838503121561311457613113612cb6565b5b600061312285828601612ce9565b925050602061313385828601612e38565b9150509250929050565b61314681612cc0565b82525050565b6000602082019050613161600083018461313d565b92915050565b61317081612c76565b811461317b57600080fd5b50565b60008135905061318d81613167565b92915050565b6000602082840312156131a9576131a8612cb6565b5b60006131b78482850161317e565b91505092915050565b600080604083850312156131d7576131d6612cb6565b5b60006131e585828601612ce9565b925050602083013567ffffffffffffffff81111561320657613205612cbb565b5b61321285828601612eb6565b9150509250929050565b600061322782612c28565b9050919050565b6132378161321c565b82525050565b6000602082019050613252600083018461322e565b92915050565b60006020828403121561326e5761326d612cb6565b5b600061327c84828501612e38565b91505092915050565b600081519050919050565b600082825260208201905092915050565b6000819050602082019050919050565b6132ba81612d2b565b82525050565b60006132cc83836132b1565b60208301905092915050565b6000602082019050919050565b60006132f082613285565b6132fa8185613290565b9350613305836132a1565b8060005b8381101561333657815161331d88826132c0565b9750613328836132d8565b925050600181019050613309565b5085935050505092915050565b6000606082019050818103600083015261335d81866132e5565b9050818103602083015261337181856132e5565b9050818103604083015261338581846132e5565b9050949350505050565b7f4e487b7100000000000000000000000000000000000000000000000000000000600052601160045260246000fd5b60006133c982612d2b565b91506133d483612d2b565b92508282019050808211156133ec576133eb61338f565b5b92915050565b600082825260208201905092915050565b7f556e6b6e6f776e20636f6e747261637400000000000000000000000000000000600082015250565b60006134396010836133f2565b915061344482613403565b602082019050919050565b600060208201905081810360008301526134688161342c565b9050919050565b7f4c69737473206e6f742073616d65206c656e6774680000000000000000000000600082015250565b60006134a56015836133f2565b91506134b08261346f565b602082019050919050565b600060208201905081810360008301526134d481613498565b9050919050565b7f4e487b7100000000000000000000000000000000000000000000000000000000600052603260045260246000fd5b600061351582612d2b565b91507fffffffffffffffffffffffffffffffffffffffffffffffffffffffffffffffff82036135475761354661338f565b5b600182019050919050565b7f4e487b7100000000000000000000000000000000000000000000000000000000600052602160045260246000fd5b600061358c82612d2b565b915061359783612d2b565b92508282039050818111156135af576135ae61338f565b5b92915050565b60006135c082612d2b565b91506135cb83612d2b565b92508282026135d981612d2b565b915082820484148315176135f0576135ef61338f565b5b5092915050565b7f4e487b7100000000000000000000000000000000000000000000000000000000600052601260045260246000fd5b600061363182612d2b565b915061363c83612d2b565b92508261364c5761364b6135f7565b5b828204905092915050565b7f556e6b6e6f776e20636f6e7472616374206f72207374616b696e67206973206e60008201527f6f742079657420656e61626c656420666f722074686973204e46540000000000602082015250565b60006136b3603b836133f2565b91506136be82613657565b604082019050919050565b600060208201905081810360008301526136e2816136a6565b9050919050565b6000815190506136f881612cd2565b92915050565b60006020828403121561371457613713612cb6565b5b6000613722848285016136e9565b91505092915050565b7f4e6f7420746865206f776e657200000000000000000000000000000000000000600082015250565b6000613761600d836133f2565b915061376c8261372b565b602082019050919050565b6000602082019050818103600083015261379081613754565b9050919050565b7f4e487b7100000000000000000000000000000000000000000000000000000000600052603160045260246000fd5b60006060820190506137db600083018661313d565b6137e8602083018561313d565b6137f56040830184612d35565b949350505050565b6000604082019050613812600083018561313d565b61381f6020830184612d35565b9392505050565b60008151905061383581612e21565b92915050565b60006020828403121561385157613850612cb6565b5b600061385f84828501613826565b91505092915050565b7f4465706f73697420706175736564000000000000000000000000000000000000600082015250565b600061389e600e836133f2565b91506138a982613868565b602082019050919050565b600060208201905081810360008301526138cd81613891565b9050919050565b7f5374616b696e67206973206e6f74206c61756e63686564207965740000000000600082015250565b600061390a601b836133f2565b9150613915826138d4565b602082019050919050565b60006020820190508181036000830152613939816138fd565b9050919050565b7f4e6f7420746865206f776e6572206f66207374616b696e67204e465400000000600082015250565b6000613976601c836133f2565b915061398182613940565b602082019050919050565b600060208201905081810360008301526139a581613969565b9050919050565b7f5374616b696e6720686173206265656e206c61756e6368656420616c7265616460008201527f7900000000000000000000000000000000000000000000000000000000000000602082015250565b6000613a086021836133f2565b9150613a13826139ac565b604082019050919050565b60006020820190508181036000830152613a37816139fb565b9050919050565b7f3530206973206d61782070657220747800000000000000000000000000000000600082015250565b6000613a746010836133f2565b9150613a7f82613a3e565b602082019050919050565b60006020820190508181036000830152613aa381613a67565b9050919050565b7f4f776e61626c653a206e6577206f776e657220697320746865207a65726f206160008201527f6464726573730000000000000000000000000000000000000000000000000000602082015250565b6000613b066026836133f2565b9150613b1182613aaa565b604082019050919050565b60006020820190508181036000830152613b3581613af9565b9050919050565b7f4f776e61626c653a2063616c6c6572206973206e6f7420746865206f776e6572600082015250565b6000613b726020836133f2565b9150613b7d82613b3c565b602082019050919050565b60006020820190508181036000830152613ba181613b65565b9050919050565b7f5265656e7472616e637947756172643a207265656e7472616e742063616c6c00600082015250565b6000613bde601f836133f2565b9150613be982613ba8565b602082019050919050565b60006020820190508181036000830152613c0d81613bd1565b9050919050565b7f4e6f7420746865206f776e6572206f72206475706c6963617465204e4654206960008201527f6e206c6973740000000000000000000000000000000000000000000000000000602082015250565b6000613c706026836133f2565b9150613c7b82613c14565b604082019050919050565b60006020820190508181036000830152613c9f81613c63565b905091905056fea264697066735822122085aedfe3acca1347b6fc4143b9e061b6a2240643fe85e7ed937b351ca9782ee664736f6c63430008110033",
  "immutableReferences": {},
  "source": "// SPDX-License-Identifier: MIT\npragma solidity ^0.8.17;\n\nimport \"@openzeppelin/contracts/access/Ownable.sol\";\nimport \"@openzeppelin/contracts/token/ERC721/IERC721.sol\";\n\nimport \"@openzeppelin/contracts/security/ReentrancyGuard.sol\";\nimport \"@openzeppelin/contracts/token/ERC721/utils/ERC721Holder.sol\";\n\ninterface IMoonStaking {\n    function getTokenYield(\n        address contractAddress,\n        uint256 tokenId\n    ) external view returns (uint256);\n\n    function getStakerNFT(\n        address staker\n    )\n        external\n        view\n        returns (\n            uint256[] memory,\n            uint256[] memory,\n            uint256[] memory,\n            uint256[] memory,\n            uint256[] memory\n        );\n\n    function balanceOf(address owner) external view returns (uint256 balance);\n}\n\ncontract MoonStakingS2 is ERC721Holder, Ownable, ReentrancyGuard {\n    IERC721 public GenesisNFT;\n    IERC721 public MutantNFT;\n    IERC721 public DekuNFT;\n    IMoonStaking public MoonStakingS1;\n\n    uint256 public constant SECONDS_IN_DAY = 86400;\n    uint256 public startTimestamp;\n    bool public stakingLaunched;\n    bool public depositPaused;\n\n    struct Staker {\n        uint256 accumulatedAmount; // DO need this\n        uint256 lastCheckpoint; // AND his\n        uint256[] stakedGENESIS;\n        uint256[] stakedMUTANT;\n        uint256[] stakedDEKU;\n    }\n\n    mapping(address => Staker) private _stakers;\n    mapping(uint256 => uint256) private _yieldmapping;\n\n    enum ContractTypes {\n        GENESIS,\n        MUTANT,\n        DEKU\n    }\n\n    mapping(address => ContractTypes) private _contractTypes;\n\n    mapping(address => uint256) public _baseRates;\n    mapping(address => mapping(uint256 => uint256)) private _rarityMultiplyer;\n    mapping(address => mapping(uint256 => address)) private _ownerOfToken;\n    mapping(address => bool) private _authorised;\n    address[] public authorisedLog;\n\n    event Stake721(\n        address indexed staker,\n        address contractAddress,\n        uint256 tokensAmount\n    );\n\n    event Unstake721(\n        address indexed staker,\n        address contractAddress,\n        uint256 tokensAmount\n    );\n\n    event ForceWithdraw721(\n        address indexed receiver,\n        address indexed tokenAddress,\n        uint256 indexed tokenId\n    );\n\n    constructor(address _genesis, address _mooonstakings1) {\n        GenesisNFT = IERC721(_genesis);\n        _contractTypes[_genesis] = ContractTypes.GENESIS;\n        _baseRates[_genesis] = 250 ether;\n        MoonStakingS1 = IMoonStaking(_mooonstakings1);\n        _yieldmapping[150] = 250;\n        _yieldmapping[180] = 300;\n        _yieldmapping[210] = 350;\n        _yieldmapping[240] = 425;\n        _yieldmapping[300] = 500;\n    }\n\n    modifier authorised() {\n        require(\n            _authorised[_msgSender()],\n            \"The token contract is not authorised\"\n        );\n        _;\n    }\n\n    function stake721(\n        address contractAddress,\n        uint256[] memory tokenIds\n    ) public nonReentrant {\n        require(!depositPaused, \"Deposit paused\");\n        require(stakingLaunched, \"Staking is not launched yet\");\n        require(\n            (contractAddress != address(0) &&\n                contractAddress == address(GenesisNFT)) ||\n                contractAddress == address(MutantNFT) ||\n                contractAddress == address(DekuNFT),\n            \"Unknown contract or staking is not yet enabled for this NFT\"\n        );\n        ContractTypes contractType = _contractTypes[contractAddress];\n\n        Staker storage user = _stakers[_msgSender()];\n\n        for (uint256 i; i < tokenIds.length; i++) {\n            require(\n                IERC721(contractAddress).ownerOf(tokenIds[i]) == _msgSender(),\n                \"Not the owner of staking NFT\"\n            );\n            IERC721(contractAddress).safeTransferFrom(\n                _msgSender(),\n                address(this),\n                tokenIds[i]\n            );\n\n            _ownerOfToken[contractAddress][tokenIds[i]] = _msgSender();\n\n            if (contractType == ContractTypes.GENESIS) {\n                user.stakedGENESIS.push(tokenIds[i]);\n            }\n            if (contractType == ContractTypes.MUTANT) {\n                user.stakedMUTANT.push(tokenIds[i]);\n            }\n            if (contractType == ContractTypes.DEKU) {\n                user.stakedDEKU.push(tokenIds[i]);\n            }\n        }\n\n        accumulate(_msgSender());\n\n        emit Stake721(_msgSender(), contractAddress, tokenIds.length);\n    }\n\n    function unstake721(\n        address contractAddress,\n        uint256[] memory tokenIds\n    ) public nonReentrant {\n        require(\n            (contractAddress != address(0) &&\n                contractAddress == address(GenesisNFT)) ||\n                contractAddress == address(MutantNFT) ||\n                contractAddress == address(DekuNFT),\n            \"Unknown contract or staking is not yet enabled for this NFT\"\n        );\n        ContractTypes contractType = _contractTypes[contractAddress];\n        Staker storage user = _stakers[_msgSender()];\n\n        for (uint256 i; i < tokenIds.length; i++) {\n            require(\n                IERC721(contractAddress).ownerOf(tokenIds[i]) == address(this),\n                \"Not the owner\"\n            );\n\n            _ownerOfToken[contractAddress][tokenIds[i]] = address(0);\n\n            if (contractType == ContractTypes.GENESIS) {\n                user.stakedGENESIS = _prepareForDeletion(\n                    user.stakedGENESIS,\n                    tokenIds[i]\n                );\n                user.stakedGENESIS.pop();\n            }\n            if (contractType == ContractTypes.MUTANT) {\n                user.stakedMUTANT = _prepareForDeletion(\n                    user.stakedMUTANT,\n                    tokenIds[i]\n                );\n                user.stakedMUTANT.pop();\n            }\n            if (contractType == ContractTypes.DEKU) {\n                user.stakedDEKU = _prepareForDeletion(\n                    user.stakedDEKU,\n                    tokenIds[i]\n                );\n                user.stakedDEKU.pop();\n            }\n\n            IERC721(contractAddress).safeTransferFrom(\n                address(this),\n                _msgSender(),\n                tokenIds[i]\n            );\n        }\n\n        accumulate(_msgSender()); // TODO make sure this is up to date\n\n        emit Unstake721(_msgSender(), contractAddress, tokenIds.length);\n    }\n\n    function getTokenYield(\n        address contractAddress,\n        uint256 tokenId\n    ) public view returns (uint256) {\n        uint256 tokenYield = _rarityMultiplyer[contractAddress][tokenId] *\n            _baseRates[contractAddress];\n        if (tokenYield == 0) {\n            tokenYield = _baseRates[contractAddress];\n        }\n\n        return tokenYield;\n    }\n\n    function getGenesisYield(uint genesisId) public view returns (uint256) {\n        uint s1Yield = MoonStakingS1.getTokenYield(\n            address(GenesisNFT),\n            genesisId\n        );\n        return _yieldmapping[s1Yield];\n    }\n\n    // function getApeLootTokenYield(\n    //     uint256 apeId,\n    //     uint256 lootId\n    // ) public view returns (uint256) {\n    //     uint256 apeYield = _individualRates[address(ApeNft)][apeId];\n    //     if (apeYield == 0) {\n    //         apeYield = _baseRates[address(ApeNft)];\n    //     }\n\n    //     uint256 lootBoost = _individualRates[address(LootNft)][lootId];\n    //     if (lootId == 0) {\n    //         lootBoost = 10;\n    //     } else {\n    //         if (lootBoost == 0) {\n    //             lootBoost = _baseRates[address(LootNft)];\n    //         }\n    //     }\n\n    //     return (apeYield * lootBoost) / 10;\n    // }\n\n    function getStakerYield(address staker) public view returns (uint256) {\n        // return _stakers[staker].currentYield;\n        return 0; // TODO: fix this\n    }\n\n    function getStakerNFT(\n        address staker\n    )\n        public\n        view\n        returns (uint256[] memory, uint256[] memory, uint256[] memory)\n    {\n        return (\n            _stakers[staker].stakedGENESIS,\n            _stakers[staker].stakedMUTANT,\n            _stakers[staker].stakedDEKU\n        );\n    }\n\n    /* Moving the token last in list */\n    function _prepareForDeletion(\n        uint256[] memory list,\n        uint256 tokenId\n    ) internal pure returns (uint256[] memory) {\n        bool inlist = false;\n        for (uint256 i = 0; i < list.length; i++) {\n            if (list[i] == tokenId) {\n                list[i] = list[list.length - 1];\n                list[list.length - 1] = tokenId;\n                inlist = true;\n                break;\n            }\n        }\n        require(inlist, \"Not the owner or duplicate NFT in list\");\n        return list;\n    }\n\n    function getCurrentReward(address staker) public view returns (uint256) {\n        Staker memory user = _stakers[staker];\n        uint256 userYield = getStakerYield(staker);\n\n        if (user.lastCheckpoint == 0) {\n            return 0;\n        }\n        return\n            ((block.timestamp - user.lastCheckpoint) * userYield) /\n            SECONDS_IN_DAY;\n    }\n\n    function getAccumulatedAmount(\n        address staker\n    ) external view returns (uint256) {\n        return _stakers[staker].accumulatedAmount + getCurrentReward(staker);\n    }\n\n    function accumulate(address staker) internal {\n        _stakers[staker].accumulatedAmount += getCurrentReward(staker);\n        _stakers[staker].lastCheckpoint = block.timestamp;\n    }\n\n    /**\n     * CONTRACTS\n     */\n    function ownerOf(\n        address contractAddress,\n        uint256 tokenId\n    ) public view returns (address) {\n        return _ownerOfToken[contractAddress][tokenId];\n    }\n\n    function balanceOf(address user) public view returns (uint256) {\n        uint oldBalanceOf = MoonStakingS1.balanceOf(_msgSender());\n        return _stakers[user].stakedGENESIS.length;\n    }\n\n    function setDEKUContract(\n        address _deku,\n        uint256 _baseReward\n    ) public onlyOwner {\n        DekuNFT = IERC721(_deku);\n        _contractTypes[_deku] = ContractTypes.DEKU;\n        _baseRates[_deku] = _baseReward;\n    }\n\n    function setMUTANTContract(\n        address _mutant,\n        uint256 _baseReward\n    ) public onlyOwner {\n        MutantNFT = IERC721(_mutant);\n        _contractTypes[_mutant] = ContractTypes.MUTANT;\n        _baseRates[_mutant] = _baseReward;\n    }\n\n    /**\n     * ADMIN\n     */\n    function authorise(address toAuth) public onlyOwner {\n        _authorised[toAuth] = true;\n        authorisedLog.push(toAuth);\n    }\n\n    function unauthorise(address addressToUnAuth) public onlyOwner {\n        _authorised[addressToUnAuth] = false;\n    }\n\n    function forceWithdraw721(\n        address tokenAddress,\n        uint256[] memory tokenIds\n    ) public onlyOwner {\n        require(tokenIds.length <= 50, \"50 is max per tx\");\n        pauseDeposit(true);\n        for (uint256 i; i < tokenIds.length; i++) {\n            address receiver = _ownerOfToken[tokenAddress][tokenIds[i]];\n            if (\n                receiver != address(0) &&\n                IERC721(tokenAddress).ownerOf(tokenIds[i]) == address(this)\n            ) {\n                IERC721(tokenAddress).transferFrom(\n                    address(this),\n                    receiver,\n                    tokenIds[i]\n                );\n                emit ForceWithdraw721(receiver, tokenAddress, tokenIds[i]);\n            }\n        }\n    }\n\n    function pauseDeposit(bool _pause) public onlyOwner {\n        depositPaused = _pause;\n    }\n\n    function launchStaking() public onlyOwner {\n        require(!stakingLaunched, \"Staking has been launched already\");\n        stakingLaunched = true;\n        startTimestamp = block.timestamp;\n    }\n\n    function updateBaseYield(\n        address _contract,\n        uint256 _yield\n    ) public onlyOwner {\n        _baseRates[_contract] = _yield;\n    }\n\n    function setIndividualRates(\n        address contractAddress,\n        uint256[] memory tokenIds,\n        uint256[] memory rates\n    ) public onlyOwner {\n        require(\n            (contractAddress != address(0) &&\n                contractAddress == address(GenesisNFT)) ||\n                contractAddress == address(MutantNFT) ||\n                contractAddress == address(DekuNFT),\n            \"Unknown contract\"\n        );\n        require(tokenIds.length == rates.length, \"Lists not same length\");\n        for (uint256 i; i < tokenIds.length; i++) {\n            _rarityMultiplyer[contractAddress][tokenIds[i]] = rates[i];\n        }\n    }\n\n    // TODO: NEED THIS?\n    // function onERC721Received(\n    //     address,\n    //     address,\n    //     uint256,\n    //     bytes calldata\n    // ) external pure override returns (bytes4) {\n    //     return\n    //         bytes4(\n    //             keccak256(\"onERC721Received(address,address,uint256,bytes)\")\n    //         );\n    // }\n\n    function withdrawETH() external onlyOwner {\n        payable(owner()).transfer(address(this).balance);\n    }\n}\n",
  "sourcePath": "C:\\Users\\endre\\dev\\MAL\\season2\\MalContracts\\contracts\\MoonStakingS2.sol",
  "compiler": {
    "name": "solc",
    "version": "0.8.17+commit.8df45f5f.Emscripten.clang"
  },
  "schemaVersion": "3.4.11",
  "updatedAt": "2022-12-04T13:32:40.531Z",
  "devdoc": {
    "kind": "dev",
    "methods": {
      "onERC721Received(address,address,uint256,bytes)": {
        "details": "See {IERC721Receiver-onERC721Received}. Always returns `IERC721Receiver.onERC721Received.selector`."
      },
      "owner()": {
        "details": "Returns the address of the current owner."
      },
      "renounceOwnership()": {
        "details": "Leaves the contract without owner. It will not be possible to call `onlyOwner` functions anymore. Can only be called by the current owner. NOTE: Renouncing ownership will leave the contract without an owner, thereby removing any functionality that is only available to the owner."
      },
      "transferOwnership(address)": {
        "details": "Transfers ownership of the contract to a new account (`newOwner`). Can only be called by the current owner."
      }
    },
    "version": 1
  },
  "userdoc": {
    "kind": "user",
    "methods": {
      "authorise(address)": {
        "notice": "ADMIN"
      },
      "ownerOf(address,uint256)": {
        "notice": "CONTRACTS"
      }
    },
    "version": 1
  }
}